{
  "_format": "hh-sol-artifact-1",
  "contractName": "SoulboundERC721A",
  "sourceName": "contracts/soulbound-erc721a/SoulboundERC721A.sol",
  "abi": [
    {
      "inputs": [
        {
          "internalType": "string",
          "name": "_name",
          "type": "string"
        },
        {
          "internalType": "string",
          "name": "_symbol",
          "type": "string"
        },
        {
          "internalType": "string",
          "name": "_initialBaseURI",
          "type": "string"
        },
        {
          "internalType": "uint256",
          "name": "_maxSupply",
          "type": "uint256"
        },
        {
          "internalType": "uint256",
          "name": "_maxMintPerAddress",
          "type": "uint256"
        }
      ],
      "stateMutability": "nonpayable",
      "type": "constructor"
    },
    {
      "inputs": [],
      "name": "ApprovalCallerNotOwnerNorApproved",
      "type": "error"
    },
    {
      "inputs": [],
      "name": "ApprovalQueryForNonexistentToken",
      "type": "error"
    },
    {
      "inputs": [],
      "name": "BalanceQueryForZeroAddress",
      "type": "error"
    },
    {
      "inputs": [],
      "name": "MintERC2309QuantityExceedsLimit",
      "type": "error"
    },
    {
      "inputs": [],
      "name": "MintToZeroAddress",
      "type": "error"
    },
    {
      "inputs": [],
      "name": "MintZeroQuantity",
      "type": "error"
    },
    {
      "inputs": [],
      "name": "NotCompatibleWithSpotMints",
      "type": "error"
    },
    {
      "inputs": [
        {
          "internalType": "address",
          "name": "owner",
          "type": "address"
        }
      ],
      "name": "OwnableInvalidOwner",
      "type": "error"
    },
    {
      "inputs": [
        {
          "internalType": "address",
          "name": "account",
          "type": "address"
        }
      ],
      "name": "OwnableUnauthorizedAccount",
      "type": "error"
    },
    {
      "inputs": [],
      "name": "OwnerQueryForNonexistentToken",
      "type": "error"
    },
    {
      "inputs": [],
      "name": "OwnershipNotInitializedForExtraData",
      "type": "error"
    },
    {
      "inputs": [],
      "name": "ReentrancyGuardReentrantCall",
      "type": "error"
    },
    {
      "inputs": [],
      "name": "SequentialMintExceedsLimit",
      "type": "error"
    },
    {
      "inputs": [],
      "name": "SequentialUpToTooSmall",
      "type": "error"
    },
    {
      "inputs": [],
      "name": "SpotMintTokenIdTooSmall",
      "type": "error"
    },
    {
      "inputs": [],
      "name": "TokenAlreadyExists",
      "type": "error"
    },
    {
      "inputs": [],
      "name": "TransferCallerNotOwnerNorApproved",
      "type": "error"
    },
    {
      "inputs": [],
      "name": "TransferFromIncorrectOwner",
      "type": "error"
    },
    {
      "inputs": [],
      "name": "TransferToNonERC721ReceiverImplementer",
      "type": "error"
    },
    {
      "inputs": [],
      "name": "TransferToZeroAddress",
      "type": "error"
    },
    {
      "inputs": [],
      "name": "URIQueryForNonexistentToken",
      "type": "error"
    },
    {
      "anonymous": false,
      "inputs": [
        {
          "indexed": true,
          "internalType": "address",
          "name": "owner",
          "type": "address"
        },
        {
          "indexed": true,
          "internalType": "address",
          "name": "approved",
          "type": "address"
        },
        {
          "indexed": true,
          "internalType": "uint256",
          "name": "tokenId",
          "type": "uint256"
        }
      ],
      "name": "Approval",
      "type": "event"
    },
    {
      "anonymous": false,
      "inputs": [
        {
          "indexed": true,
          "internalType": "address",
          "name": "owner",
          "type": "address"
        },
        {
          "indexed": true,
          "internalType": "address",
          "name": "operator",
          "type": "address"
        },
        {
          "indexed": false,
          "internalType": "bool",
          "name": "approved",
          "type": "bool"
        }
      ],
      "name": "ApprovalForAll",
      "type": "event"
    },
    {
      "anonymous": false,
      "inputs": [
        {
          "indexed": false,
          "internalType": "string",
          "name": "newBaseURI",
          "type": "string"
        }
      ],
      "name": "BaseURIUpdated",
      "type": "event"
    },
    {
      "anonymous": false,
      "inputs": [
        {
          "indexed": false,
          "internalType": "bool",
          "name": "isBurnEnabled",
          "type": "bool"
        }
      ],
      "name": "BurnEnabledUpdated",
      "type": "event"
    },
    {
      "anonymous": false,
      "inputs": [
        {
          "indexed": true,
          "internalType": "address",
          "name": "from",
          "type": "address"
        },
        {
          "indexed": false,
          "internalType": "uint256",
          "name": "tokenId",
          "type": "uint256"
        }
      ],
      "name": "Burned",
      "type": "event"
    },
    {
      "anonymous": false,
      "inputs": [
        {
          "indexed": true,
          "internalType": "uint256",
          "name": "fromTokenId",
          "type": "uint256"
        },
        {
          "indexed": false,
          "internalType": "uint256",
          "name": "toTokenId",
          "type": "uint256"
        },
        {
          "indexed": true,
          "internalType": "address",
          "name": "from",
          "type": "address"
        },
        {
          "indexed": true,
          "internalType": "address",
          "name": "to",
          "type": "address"
        }
      ],
      "name": "ConsecutiveTransfer",
      "type": "event"
    },
    {
      "anonymous": false,
      "inputs": [
        {
          "indexed": false,
          "internalType": "uint256",
          "name": "newMaxMintPerAddress",
          "type": "uint256"
        }
      ],
      "name": "MaxMintPerAddressUpdated",
      "type": "event"
    },
    {
      "anonymous": false,
      "inputs": [
        {
          "indexed": false,
          "internalType": "uint256",
          "name": "newMaxSupply",
          "type": "uint256"
        }
      ],
      "name": "MaxSupplyUpdated",
      "type": "event"
    },
    {
      "anonymous": false,
      "inputs": [
        {
          "indexed": true,
          "internalType": "address",
          "name": "to",
          "type": "address"
        },
        {
          "indexed": false,
          "internalType": "uint256",
          "name": "quantity",
          "type": "uint256"
        }
      ],
      "name": "Minted",
      "type": "event"
    },
    {
      "anonymous": false,
      "inputs": [
        {
          "indexed": true,
          "internalType": "address",
          "name": "previousOwner",
          "type": "address"
        },
        {
          "indexed": true,
          "internalType": "address",
          "name": "newOwner",
          "type": "address"
        }
      ],
      "name": "OwnershipTransferred",
      "type": "event"
    },
    {
      "anonymous": false,
      "inputs": [
        {
          "indexed": false,
          "internalType": "bool",
          "name": "isPaused",
          "type": "bool"
        }
      ],
      "name": "PausedStatusUpdated",
      "type": "event"
    },
    {
      "anonymous": false,
      "inputs": [
        {
          "indexed": true,
          "internalType": "address",
          "name": "wallet",
          "type": "address"
        },
        {
          "indexed": false,
          "internalType": "uint256",
          "name": "limit",
          "type": "uint256"
        }
      ],
      "name": "TemporaryMintLimitSet",
      "type": "event"
    },
    {
      "anonymous": false,
      "inputs": [
        {
          "indexed": true,
          "internalType": "address",
          "name": "from",
          "type": "address"
        },
        {
          "indexed": true,
          "internalType": "address",
          "name": "to",
          "type": "address"
        },
        {
          "indexed": true,
          "internalType": "uint256",
          "name": "tokenId",
          "type": "uint256"
        }
      ],
      "name": "Transfer",
      "type": "event"
    },
    {
      "inputs": [
        {
          "internalType": "address",
          "name": "",
          "type": "address"
        },
        {
          "internalType": "uint256",
          "name": "",
          "type": "uint256"
        }
      ],
      "name": "approve",
      "outputs": [],
      "stateMutability": "payable",
      "type": "function"
    },
    {
      "inputs": [
        {
          "internalType": "address",
          "name": "owner",
          "type": "address"
        }
      ],
      "name": "balanceOf",
      "outputs": [
        {
          "internalType": "uint256",
          "name": "",
          "type": "uint256"
        }
      ],
      "stateMutability": "view",
      "type": "function"
    },
    {
      "inputs": [
        {
          "internalType": "uint256",
          "name": "tokenId",
          "type": "uint256"
        }
      ],
      "name": "burn",
      "outputs": [],
      "stateMutability": "nonpayable",
      "type": "function"
    },
    {
      "inputs": [
        {
          "internalType": "uint256",
          "name": "tokenId",
          "type": "uint256"
        }
      ],
      "name": "burnByOwner",
      "outputs": [],
      "stateMutability": "nonpayable",
      "type": "function"
    },
    {
      "inputs": [],
      "name": "burnEnabled",
      "outputs": [
        {
          "internalType": "bool",
          "name": "",
          "type": "bool"
        }
      ],
      "stateMutability": "view",
      "type": "function"
    },
    {
      "inputs": [
        {
          "internalType": "uint256",
          "name": "tokenId",
          "type": "uint256"
        }
      ],
      "name": "getApproved",
      "outputs": [
        {
          "internalType": "address",
          "name": "",
          "type": "address"
        }
      ],
      "stateMutability": "view",
      "type": "function"
    },
    {
      "inputs": [
        {
          "internalType": "address",
          "name": "wallet",
          "type": "address"
        }
      ],
      "name": "getCurrentMintLimit",
      "outputs": [
        {
          "internalType": "uint256",
          "name": "",
          "type": "uint256"
        }
      ],
      "stateMutability": "view",
      "type": "function"
    },
    {
      "inputs": [
        {
          "internalType": "address",
          "name": "owner",
          "type": "address"
        },
        {
          "internalType": "address",
          "name": "operator",
          "type": "address"
        }
      ],
      "name": "isApprovedForAll",
      "outputs": [
        {
          "internalType": "bool",
          "name": "",
          "type": "bool"
        }
      ],
      "stateMutability": "view",
      "type": "function"
    },
    {
      "inputs": [],
      "name": "maxMintPerAddress",
      "outputs": [
        {
          "internalType": "uint256",
          "name": "",
          "type": "uint256"
        }
      ],
      "stateMutability": "view",
      "type": "function"
    },
    {
      "inputs": [],
      "name": "maxSupply",
      "outputs": [
        {
          "internalType": "uint256",
          "name": "",
          "type": "uint256"
        }
      ],
      "stateMutability": "view",
      "type": "function"
    },
    {
      "inputs": [
        {
          "internalType": "uint256",
          "name": "quantity",
          "type": "uint256"
        }
      ],
      "name": "mint",
      "outputs": [],
      "stateMutability": "nonpayable",
      "type": "function"
    },
    {
      "inputs": [
        {
          "internalType": "address",
          "name": "",
          "type": "address"
        }
      ],
      "name": "mintedAmount",
      "outputs": [
        {
          "internalType": "uint256",
          "name": "",
          "type": "uint256"
        }
      ],
      "stateMutability": "view",
      "type": "function"
    },
    {
      "inputs": [],
      "name": "name",
      "outputs": [
        {
          "internalType": "string",
          "name": "",
          "type": "string"
        }
      ],
      "stateMutability": "view",
      "type": "function"
    },
    {
      "inputs": [],
      "name": "owner",
      "outputs": [
        {
          "internalType": "address",
          "name": "",
          "type": "address"
        }
      ],
      "stateMutability": "view",
      "type": "function"
    },
    {
      "inputs": [
        {
          "internalType": "uint256",
          "name": "tokenId",
          "type": "uint256"
        }
      ],
      "name": "ownerOf",
      "outputs": [
        {
          "internalType": "address",
          "name": "",
          "type": "address"
        }
      ],
      "stateMutability": "view",
      "type": "function"
    },
    {
      "inputs": [],
      "name": "paused",
      "outputs": [
        {
          "internalType": "bool",
          "name": "",
          "type": "bool"
        }
      ],
      "stateMutability": "view",
      "type": "function"
    },
    {
      "inputs": [
        {
          "internalType": "address",
          "name": "wallet",
          "type": "address"
        }
      ],
      "name": "remainingMintAmount",
      "outputs": [
        {
          "internalType": "uint256",
          "name": "",
          "type": "uint256"
        }
      ],
      "stateMutability": "view",
      "type": "function"
    },
    {
      "inputs": [],
      "name": "remainingTotalSupply",
      "outputs": [
        {
          "internalType": "uint256",
          "name": "",
          "type": "uint256"
        }
      ],
      "stateMutability": "view",
      "type": "function"
    },
    {
      "inputs": [],
      "name": "renounceOwnership",
      "outputs": [],
      "stateMutability": "nonpayable",
      "type": "function"
    },
    {
      "inputs": [
        {
          "internalType": "address",
          "name": "",
          "type": "address"
        },
        {
          "internalType": "address",
          "name": "",
          "type": "address"
        },
        {
          "internalType": "uint256",
          "name": "",
          "type": "uint256"
        }
      ],
      "name": "safeTransferFrom",
      "outputs": [],
      "stateMutability": "payable",
      "type": "function"
    },
    {
      "inputs": [
        {
          "internalType": "address",
          "name": "",
          "type": "address"
        },
        {
          "internalType": "address",
          "name": "",
          "type": "address"
        },
        {
          "internalType": "uint256",
          "name": "",
          "type": "uint256"
        },
        {
          "internalType": "bytes",
          "name": "",
          "type": "bytes"
        }
      ],
      "name": "safeTransferFrom",
      "outputs": [],
      "stateMutability": "payable",
      "type": "function"
    },
    {
      "inputs": [
        {
          "internalType": "address",
          "name": "",
          "type": "address"
        },
        {
          "internalType": "bool",
          "name": "",
          "type": "bool"
        }
      ],
      "name": "setApprovalForAll",
      "outputs": [],
      "stateMutability": "nonpayable",
      "type": "function"
    },
    {
      "inputs": [
        {
          "internalType": "string",
          "name": "_newBaseURI",
          "type": "string"
        }
      ],
      "name": "setBaseURI",
      "outputs": [],
      "stateMutability": "nonpayable",
      "type": "function"
    },
    {
      "inputs": [
        {
          "internalType": "bool",
          "name": "_burnEnabled",
          "type": "bool"
        }
      ],
      "name": "setBurnEnabled",
      "outputs": [],
      "stateMutability": "nonpayable",
      "type": "function"
    },
    {
      "inputs": [
        {
          "internalType": "uint256",
          "name": "_newMaxMintPerAddress",
          "type": "uint256"
        }
      ],
      "name": "setMaxMintPerAddress",
      "outputs": [],
      "stateMutability": "nonpayable",
      "type": "function"
    },
    {
      "inputs": [
        {
          "internalType": "uint256",
          "name": "_newMaxSupply",
          "type": "uint256"
        }
      ],
      "name": "setMaxSupply",
      "outputs": [],
      "stateMutability": "nonpayable",
      "type": "function"
    },
    {
      "inputs": [
        {
          "internalType": "bool",
          "name": "_paused",
          "type": "bool"
        }
      ],
      "name": "setPaused",
      "outputs": [],
      "stateMutability": "nonpayable",
      "type": "function"
    },
    {
      "inputs": [
        {
          "internalType": "address",
          "name": "wallet",
          "type": "address"
        },
        {
          "internalType": "uint256",
          "name": "limit",
          "type": "uint256"
        }
      ],
      "name": "setTemporaryMintLimit",
      "outputs": [],
      "stateMutability": "nonpayable",
      "type": "function"
    },
    {
      "inputs": [
        {
          "internalType": "bytes4",
          "name": "interfaceId",
          "type": "bytes4"
        }
      ],
      "name": "supportsInterface",
      "outputs": [
        {
          "internalType": "bool",
          "name": "",
          "type": "bool"
        }
      ],
      "stateMutability": "view",
      "type": "function"
    },
    {
      "inputs": [],
      "name": "symbol",
      "outputs": [
        {
          "internalType": "string",
          "name": "",
          "type": "string"
        }
      ],
      "stateMutability": "view",
      "type": "function"
    },
    {
      "inputs": [
        {
          "internalType": "address",
          "name": "",
          "type": "address"
        }
      ],
      "name": "temporaryMintLimit",
      "outputs": [
        {
          "internalType": "uint256",
          "name": "",
          "type": "uint256"
        }
      ],
      "stateMutability": "view",
      "type": "function"
    },
    {
      "inputs": [
        {
          "internalType": "uint256",
          "name": "_tokenId",
          "type": "uint256"
        }
      ],
      "name": "tokenURI",
      "outputs": [
        {
          "internalType": "string",
          "name": "",
          "type": "string"
        }
      ],
      "stateMutability": "view",
      "type": "function"
    },
    {
      "inputs": [],
      "name": "totalSupply",
      "outputs": [
        {
          "internalType": "uint256",
          "name": "result",
          "type": "uint256"
        }
      ],
      "stateMutability": "view",
      "type": "function"
    },
    {
      "inputs": [
        {
          "internalType": "address",
          "name": "",
          "type": "address"
        },
        {
          "internalType": "address",
          "name": "",
          "type": "address"
        },
        {
          "internalType": "uint256",
          "name": "",
          "type": "uint256"
        }
      ],
      "name": "transferFrom",
      "outputs": [],
      "stateMutability": "payable",
      "type": "function"
    },
    {
      "inputs": [
        {
          "internalType": "address",
          "name": "newOwner",
          "type": "address"
        }
      ],
      "name": "transferOwnership",
      "outputs": [],
      "stateMutability": "nonpayable",
      "type": "function"
    }
  ],
  "bytecode": "0x60806040523480156200001157600080fd5b5060405162003d7d38038062003d7d8339818101604052810190620000379190620004e4565b620000476200020d60201b60201c565b858581600290816200005a91906200080a565b5080600390816200006c91906200080a565b506200007d6200021560201b60201c565b600081905550620000936200021560201b60201c565b620000a36200021e60201b60201c565b1015620000c357620000c263fed8210f60e01b6200024660201b60201c565b5b5050600073ffffffffffffffffffffffffffffffffffffffff168173ffffffffffffffffffffffffffffffffffffffff16036200013a5760006040517f1e4fbdf700000000000000000000000000000000000000000000000000000000815260040162000131919062000936565b60405180910390fd5b6200014b816200025060201b60201c565b506001600a8190555082600b90816200016591906200080a565b5081600c8190555080600d819055506001600e60016101000a81548160ff0219169083151502179055507f6741b2fc379fad678116fe3d4d4b9a1a184ab53ba36b86ad0fa66340b1ab41ad83604051620001c09190620009a5565b60405180910390a17f2c1d3fa42470f38c24d7ce77dc883522afe986e4d2f9bb71e11756381c240e2c6001604051620001fa9190620009e6565b60405180910390a1505050505062000a03565b600033905090565b60006001905090565b60007fffffffffffffffffffffffffffffffffffffffffffffffffffffffffffffffff905090565b8060005260046000fd5b6000600960009054906101000a900473ffffffffffffffffffffffffffffffffffffffff16905081600960006101000a81548173ffffffffffffffffffffffffffffffffffffffff021916908373ffffffffffffffffffffffffffffffffffffffff1602179055508173ffffffffffffffffffffffffffffffffffffffff168173ffffffffffffffffffffffffffffffffffffffff167f8be0079c531659141344cd1fd0a4f28419497f9722a3daafe3b4186f6b6457e060405160405180910390a35050565b6000604051905090565b600080fd5b600080fd5b600080fd5b600080fd5b6000601f19601f8301169050919050565b7f4e487b7100000000000000000000000000000000000000000000000000000000600052604160045260246000fd5b6200037f8262000334565b810181811067ffffffffffffffff82111715620003a157620003a062000345565b5b80604052505050565b6000620003b662000316565b9050620003c4828262000374565b919050565b600067ffffffffffffffff821115620003e757620003e662000345565b5b620003f28262000334565b9050602081019050919050565b60005b838110156200041f57808201518184015260208101905062000402565b60008484015250505050565b6000620004426200043c84620003c9565b620003aa565b9050828152602081018484840111156200046157620004606200032f565b5b6200046e848285620003ff565b509392505050565b600082601f8301126200048e576200048d6200032a565b5b8151620004a08482602086016200042b565b91505092915050565b6000819050919050565b620004be81620004a9565b8114620004ca57600080fd5b50565b600081519050620004de81620004b3565b92915050565b600080600080600060a0868803121562000503576200050262000320565b5b600086015167ffffffffffffffff81111562000524576200052362000325565b5b620005328882890162000476565b955050602086015167ffffffffffffffff81111562000556576200055562000325565b5b620005648882890162000476565b945050604086015167ffffffffffffffff81111562000588576200058762000325565b5b620005968882890162000476565b9350506060620005a988828901620004cd565b9250506080620005bc88828901620004cd565b9150509295509295909350565b600081519050919050565b7f4e487b7100000000000000000000000000000000000000000000000000000000600052602260045260246000fd5b600060028204905060018216806200061c57607f821691505b602082108103620006325762000631620005d4565b5b50919050565b60008190508160005260206000209050919050565b60006020601f8301049050919050565b600082821b905092915050565b6000600883026200069c7fffffffffffffffffffffffffffffffffffffffffffffffffffffffffffffffff826200065d565b620006a886836200065d565b95508019841693508086168417925050509392505050565b6000819050919050565b6000620006eb620006e5620006df84620004a9565b620006c0565b620004a9565b9050919050565b6000819050919050565b6200070783620006ca565b6200071f6200071682620006f2565b8484546200066a565b825550505050565b600090565b6200073662000727565b62000743818484620006fc565b505050565b5b818110156200076b576200075f6000826200072c565b60018101905062000749565b5050565b601f821115620007ba57620007848162000638565b6200078f846200064d565b810160208510156200079f578190505b620007b7620007ae856200064d565b83018262000748565b50505b505050565b600082821c905092915050565b6000620007df60001984600802620007bf565b1980831691505092915050565b6000620007fa8383620007cc565b9150826002028217905092915050565b6200081582620005c9565b67ffffffffffffffff81111562000831576200083062000345565b5b6200083d825462000603565b6200084a8282856200076f565b600060209050601f8311600181146200088257600084156200086d578287015190505b620008798582620007ec565b865550620008e9565b601f198416620008928662000638565b60005b82811015620008bc5784890151825560018201915060208501945060208101905062000895565b86831015620008dc5784890151620008d8601f891682620007cc565b8355505b6001600288020188555050505b505050505050565b600073ffffffffffffffffffffffffffffffffffffffff82169050919050565b60006200091e82620008f1565b9050919050565b620009308162000911565b82525050565b60006020820190506200094d600083018462000925565b92915050565b600082825260208201905092915050565b60006200097182620005c9565b6200097d818562000953565b93506200098f818560208601620003ff565b6200099a8162000334565b840191505092915050565b60006020820190508181036000830152620009c1818462000964565b905092915050565b60008115159050919050565b620009e081620009c9565b82525050565b6000602082019050620009fd6000830184620009d5565b92915050565b61336a8062000a136000396000f3fe6080604052600436106102045760003560e01c80635dc96d1611610118578063a0712d68116100a0578063d5abeb011161006f578063d5abeb011461072d578063e7221aa214610758578063e985e9c514610795578063f2fde38b146107d2578063fbbf8cc3146107fb57610204565b8063a0712d6814610682578063a22cb465146106ab578063b88d4fde146106d4578063c87b56dd146106f057610204565b8063715018a6116100e7578063715018a6146105c35780637b2c835f146105da57806380d9c313146106035780638da5cb5b1461062c57806395d89b411461065757610204565b80635dc96d16146104f55780636352211e146105205780636f8b44b01461055d57806370a082311461058657610204565b806323b872dd1161019b57806355f804b31161016a57806355f804b31461040e578063572849c41461043757806358776009146104625780635bf677311461049f5780635c975abb146104ca57610204565b806323b872dd146103705780632f3c17111461038c57806342842e0e146103c957806342966c68146103e557610204565b806316c38b3c116101d757806316c38b3c146102ca57806318160ddd146102f35780631858f6b71461031e5780631e14d44b1461034757610204565b806301ffc9a71461020957806306fdde0314610246578063081812fc14610271578063095ea7b3146102ae575b600080fd5b34801561021557600080fd5b50610230600480360381019061022b91906122a7565b610838565b60405161023d91906122ef565b60405180910390f35b34801561025257600080fd5b5061025b6108ca565b604051610268919061239a565b60405180910390f35b34801561027d57600080fd5b50610298600480360381019061029391906123f2565b61095c565b6040516102a59190612460565b60405180910390f35b6102c860048036038101906102c391906124a7565b6109ba565b005b3480156102d657600080fd5b506102f160048036038101906102ec9190612513565b6109f5565b005b3480156102ff57600080fd5b50610308610a51565b604051610315919061254f565b60405180910390f35b34801561032a57600080fd5b50610345600480360381019061034091906124a7565b610a9e565b005b34801561035357600080fd5b5061036e600480360381019061036991906123f2565b610b3c565b005b61038a6004803603810190610385919061256a565b610b85565b005b34801561039857600080fd5b506103b360048036038101906103ae91906125bd565b610bc0565b6040516103c0919061254f565b60405180910390f35b6103e360048036038101906103de919061256a565b610c3d565b005b3480156103f157600080fd5b5061040c600480360381019061040791906123f2565b610c78565b005b34801561041a57600080fd5b506104356004803603810190610430919061271f565b610d97565b005b34801561044357600080fd5b5061044c610de9565b604051610459919061254f565b60405180910390f35b34801561046e57600080fd5b50610489600480360381019061048491906125bd565b610def565b604051610496919061254f565b60405180910390f35b3480156104ab57600080fd5b506104b4610e87565b6040516104c1919061254f565b60405180910390f35b3480156104d657600080fd5b506104df610ea3565b6040516104ec91906122ef565b60405180910390f35b34801561050157600080fd5b5061050a610eb6565b60405161051791906122ef565b60405180910390f35b34801561052c57600080fd5b50610547600480360381019061054291906123f2565b610ec9565b6040516105549190612460565b60405180910390f35b34801561056957600080fd5b50610584600480360381019061057f91906123f2565b610edb565b005b34801561059257600080fd5b506105ad60048036038101906105a891906125bd565b610f24565b6040516105ba919061254f565b60405180910390f35b3480156105cf57600080fd5b506105d8610fbb565b005b3480156105e657600080fd5b5061060160048036038101906105fc9190612513565b610fcf565b005b34801561060f57600080fd5b5061062a600480360381019061062591906123f2565b61102b565b005b34801561063857600080fd5b5061064161110a565b60405161064e9190612460565b60405180910390f35b34801561066357600080fd5b5061066c611134565b604051610679919061239a565b60405180910390f35b34801561068e57600080fd5b506106a960048036038101906106a491906123f2565b6111c6565b005b3480156106b757600080fd5b506106d260048036038101906106cd9190612768565b6113f9565b005b6106ee60048036038101906106e99190612849565b611434565b005b3480156106fc57600080fd5b50610717600480360381019061071291906123f2565b61146f565b604051610724919061239a565b60405180910390f35b34801561073957600080fd5b506107426114a9565b60405161074f919061254f565b60405180910390f35b34801561076457600080fd5b5061077f600480360381019061077a91906125bd565b6114af565b60405161078c919061254f565b60405180910390f35b3480156107a157600080fd5b506107bc60048036038101906107b791906128cc565b6114c7565b6040516107c991906122ef565b60405180910390f35b3480156107de57600080fd5b506107f960048036038101906107f491906125bd565b61155b565b005b34801561080757600080fd5b50610822600480360381019061081d91906125bd565b6115e1565b60405161082f919061254f565b60405180910390f35b60006301ffc9a760e01b827bffffffffffffffffffffffffffffffffffffffffffffffffffffffff1916148061089357506380ac58cd60e01b827bffffffffffffffffffffffffffffffffffffffffffffffffffffffff1916145b806108c35750635b5e139f60e01b827bffffffffffffffffffffffffffffffffffffffffffffffffffffffff1916145b9050919050565b6060600280546108d99061293b565b80601f01602080910402602001604051908101604052809291908181526020018280546109059061293b565b80156109525780601f1061092757610100808354040283529160200191610952565b820191906000526020600020905b81548152906001019060200180831161093557829003601f168201915b5050505050905090565b6000610967826115f9565b61097c5761097b63cf4700e460e01b6116a5565b5b6006600083815260200190815260200160002060000160009054906101000a900473ffffffffffffffffffffffffffffffffffffffff169050919050565b6040517f08c379a00000000000000000000000000000000000000000000000000000000081526004016109ec906129b8565b60405180910390fd5b6109fd6116af565b80600e60006101000a81548160ff0219169083151502179055507f056aafd06a16976e0b2d699e0a606d40fc9025f526ec1ba92c041911afb088cd81604051610a4691906122ef565b60405180910390a150565b6000610a5b611736565b600154600054030390507fffffffffffffffffffffffffffffffffffffffffffffffffffffffffffffffff610a8e61173f565b14610a9b57600854810190505b90565b610aa66116af565b80601060008473ffffffffffffffffffffffffffffffffffffffff1673ffffffffffffffffffffffffffffffffffffffff168152602001908152602001600020819055508173ffffffffffffffffffffffffffffffffffffffff167fac602bfb9e8c495a81db5f416be1ee9de0e425e2d274cbf8e5343bcfa6ab132082604051610b30919061254f565b60405180910390a25050565b610b446116af565b80600d819055507fd7f52ba74b1207a57dc246679da9d4532641979dabf8cca1eb4528e9e117b6f081604051610b7a919061254f565b60405180910390a150565b6040517f08c379a0000000000000000000000000000000000000000000000000000000008152600401610bb790612a24565b60405180910390fd5b600080600f60008473ffffffffffffffffffffffffffffffffffffffff1673ffffffffffffffffffffffffffffffffffffffff16815260200190815260200160002054610c0c84610def565b610c169190612a73565b9050610c20610e87565b8110610c3357610c2e610e87565b610c35565b805b915050919050565b6040517f08c379a0000000000000000000000000000000000000000000000000000000008152600401610c6f90612a24565b60405180910390fd5b600e60019054906101000a900460ff16610cc7576040517f08c379a0000000000000000000000000000000000000000000000000000000008152600401610cbe90612af3565b60405180910390fd5b3373ffffffffffffffffffffffffffffffffffffffff16610ce782610ec9565b73ffffffffffffffffffffffffffffffffffffffff1614610d3d576040517f08c379a0000000000000000000000000000000000000000000000000000000008152600401610d3490612b5f565b60405180910390fd5b610d4681611767565b3373ffffffffffffffffffffffffffffffffffffffff167f696de425f79f4a40bc6d2122ca50507f0efbeabbff86a84871b7196ab8ea8df782604051610d8c919061254f565b60405180910390a250565b610d9f6116af565b80600b9081610dae9190612d2b565b507f6741b2fc379fad678116fe3d4d4b9a1a184ab53ba36b86ad0fa66340b1ab41ad81604051610dde919061239a565b60405180910390a150565b600d5481565b600080601060008473ffffffffffffffffffffffffffffffffffffffff1673ffffffffffffffffffffffffffffffffffffffff1681526020019081526020016000205403610e3f57600d54610e80565b601060008373ffffffffffffffffffffffffffffffffffffffff1673ffffffffffffffffffffffffffffffffffffffff168152602001908152602001600020545b9050919050565b6000610e91611775565b600c54610e9e9190612a73565b905090565b600e60009054906101000a900460ff1681565b600e60019054906101000a900460ff1681565b6000610ed4826117be565b9050919050565b610ee36116af565b80600c819055507f7810bd47de260c3e9ee10061cf438099dd12256c79485f12f94dbccc981e806c81604051610f19919061254f565b60405180910390a150565b60008073ffffffffffffffffffffffffffffffffffffffff168273ffffffffffffffffffffffffffffffffffffffff1603610f6a57610f69638f4eb60460e01b6116a5565b5b67ffffffffffffffff600560008473ffffffffffffffffffffffffffffffffffffffff1673ffffffffffffffffffffffffffffffffffffffff16815260200190815260200160002054169050919050565b610fc36116af565b610fcd60006118d7565b565b610fd76116af565b80600e60016101000a81548160ff0219169083151502179055507f2c1d3fa42470f38c24d7ce77dc883522afe986e4d2f9bb71e11756381c240e2c8160405161102091906122ef565b60405180910390a150565b6110336116af565b600061103e82610ec9565b9050600073ffffffffffffffffffffffffffffffffffffffff168173ffffffffffffffffffffffffffffffffffffffff16036110af576040517f08c379a00000000000000000000000000000000000000000000000000000000081526004016110a690612e49565b60405180910390fd5b6110b882611767565b8073ffffffffffffffffffffffffffffffffffffffff167f696de425f79f4a40bc6d2122ca50507f0efbeabbff86a84871b7196ab8ea8df7836040516110fe919061254f565b60405180910390a25050565b6000600960009054906101000a900473ffffffffffffffffffffffffffffffffffffffff16905090565b6060600380546111439061293b565b80601f016020809104026020016040519081016040528092919081815260200182805461116f9061293b565b80156111bc5780601f10611191576101008083540402835291602001916111bc565b820191906000526020600020905b81548152906001019060200180831161119f57829003601f168201915b5050505050905090565b6111ce61199d565b600e60009054906101000a900460ff161561121e576040517f08c379a000000000000000000000000000000000000000000000000000000000815260040161121590612eb5565b60405180910390fd5b60008111611261576040517f08c379a000000000000000000000000000000000000000000000000000000000815260040161125890612f21565b60405180910390fd5b611269610e87565b8111156112ab576040517f08c379a00000000000000000000000000000000000000000000000000000000081526004016112a290612f8d565b60405180910390fd5b6112b433610def565b81600f60003373ffffffffffffffffffffffffffffffffffffffff1673ffffffffffffffffffffffffffffffffffffffff168152602001908152602001600020546112ff9190612fad565b1115611340576040517f08c379a00000000000000000000000000000000000000000000000000000000081526004016113379061302d565b60405180910390fd5b80600f60003373ffffffffffffffffffffffffffffffffffffffff1673ffffffffffffffffffffffffffffffffffffffff168152602001908152602001600020600082825461138f9190612fad565b925050819055506113a033826119e3565b3373ffffffffffffffffffffffffffffffffffffffff167f30385c845b448a36257a6a1716e6ad2e1bc2cbe333cde1e69fe849ad6511adfe826040516113e6919061254f565b60405180910390a26113f6611a01565b50565b6040517f08c379a000000000000000000000000000000000000000000000000000000000815260040161142b906130bf565b60405180910390fd5b6040517f08c379a000000000000000000000000000000000000000000000000000000000815260040161146690612a24565b60405180910390fd5b6060611479611a0b565b61148283611a9d565b604051602001611493929190613167565b6040516020818303038152906040529050919050565b600c5481565b60106020528060005260406000206000915090505481565b6000600760008473ffffffffffffffffffffffffffffffffffffffff1673ffffffffffffffffffffffffffffffffffffffff16815260200190815260200160002060008373ffffffffffffffffffffffffffffffffffffffff1673ffffffffffffffffffffffffffffffffffffffff16815260200190815260200160002060009054906101000a900460ff16905092915050565b6115636116af565b600073ffffffffffffffffffffffffffffffffffffffff168173ffffffffffffffffffffffffffffffffffffffff16036115d55760006040517f1e4fbdf70000000000000000000000000000000000000000000000000000000081526004016115cc9190612460565b60405180910390fd5b6115de816118d7565b50565b600f6020528060005260406000206000915090505481565b600081611604611736565b1161169f5761161161173f565b82111561163b576116346004600084815260200190815260200160002054611aed565b90506116a0565b60005482101561169e5760005b6000600460008581526020019081526020016000205491508103611677578261167090613196565b9250611648565b60007c01000000000000000000000000000000000000000000000000000000008216149150505b5b5b919050565b8060005260046000fd5b6116b7611b2e565b73ffffffffffffffffffffffffffffffffffffffff166116d561110a565b73ffffffffffffffffffffffffffffffffffffffff1614611734576116f8611b2e565b6040517f118cdaa700000000000000000000000000000000000000000000000000000000815260040161172b9190612460565b60405180910390fd5b565b60006001905090565b60007fffffffffffffffffffffffffffffffffffffffffffffffffffffffffffffffff905090565b611772816000611b36565b50565b600061177f611736565b6000540390507fffffffffffffffffffffffffffffffffffffffffffffffffffffffffffffffff6117ae61173f565b146117bb57600854810190505b90565b6000816117c9611736565b116118c157600460008381526020019081526020016000205490506117ec61173f565b821115611811576117fc81611aed565b6118d25761181063df2d9b4260e01b6116a5565b5b600081036118985760005482106118335761183263df2d9b4260e01b6116a5565b5b5b600460008360019003935083815260200190815260200160002054905060008103156118935760007c0100000000000000000000000000000000000000000000000000000000821603156118d25761189263df2d9b4260e01b6116a5565b5b611834565b60007c0100000000000000000000000000000000000000000000000000000000821603156118d2575b6118d163df2d9b4260e01b6116a5565b5b919050565b6000600960009054906101000a900473ffffffffffffffffffffffffffffffffffffffff16905081600960006101000a81548173ffffffffffffffffffffffffffffffffffffffff021916908373ffffffffffffffffffffffffffffffffffffffff1602179055508173ffffffffffffffffffffffffffffffffffffffff168173ffffffffffffffffffffffffffffffffffffffff167f8be0079c531659141344cd1fd0a4f28419497f9722a3daafe3b4186f6b6457e060405160405180910390a35050565b6002600a54036119d9576040517f3ee5aeb500000000000000000000000000000000000000000000000000000000815260040160405180910390fd5b6002600a81905550565b6119fd828260405180602001604052806000815250611d67565b5050565b6001600a81905550565b6060600b8054611a1a9061293b565b80601f0160208091040260200160405190810160405280929190818152602001828054611a469061293b565b8015611a935780601f10611a6857610100808354040283529160200191611a93565b820191906000526020600020905b815481529060010190602001808311611a7657829003601f168201915b5050505050905090565b606060a060405101806040526020810391506000825281835b600115611ad857600184039350600a81066030018453600a8104905080611ab6575b50828103602084039350808452505050919050565b60007c0100000000000000000000000000000000000000000000000000000000821673ffffffffffffffffffffffffffffffffffffffff8316119050919050565b600033905090565b6000611b41836117be565b90506000819050600080611b5486611de3565b915091508415611b9c57611b708184611b6b611e0a565b611e12565b611b9b57611b8583611b80611e0a565b6114c7565b611b9a57611b996359c896be60e01b6116a5565b5b5b5b611baa836000886001611e56565b8015611bb557600082555b600160806001901b03600560008573ffffffffffffffffffffffffffffffffffffffff1673ffffffffffffffffffffffffffffffffffffffff16815260200190815260200160002060008282540192505081905550611c5d83611c1a85600088611f0e565b7c02000000000000000000000000000000000000000000000000000000007c01000000000000000000000000000000000000000000000000000000001717611f36565b600460008881526020019081526020016000208190555060007c0200000000000000000000000000000000000000000000000000000000851603611ce35760006001870190506000600460008381526020019081526020016000205403611ce1576000548114611ce0578460046000838152602001908152602001600020819055505b5b505b85600073ffffffffffffffffffffffffffffffffffffffff168473ffffffffffffffffffffffffffffffffffffffff167fddf252ad1be2c89b69c2b068fc378daa952ba7f163c4a11628f55a4df523b3ef60405160405180910390a4611d4d836000886001611f61565b600160008154809291906001019190505550505050505050565b611d718383611f67565b60008373ffffffffffffffffffffffffffffffffffffffff163b14611dde57600080549050600083820390505b611db160008683806001019450866120ed565b611dc657611dc563d1a57ed660e01b6116a5565b5b818110611d9e578160005414611ddb57600080fd5b50505b505050565b60008060006006600085815260200190815260200160002090508092508254915050915091565b600033905090565b600073ffffffffffffffffffffffffffffffffffffffff8316925073ffffffffffffffffffffffffffffffffffffffff821691508382148383141790509392505050565b611e628484848461221c565b600073ffffffffffffffffffffffffffffffffffffffff168473ffffffffffffffffffffffffffffffffffffffff161480611ec95750600073ffffffffffffffffffffffffffffffffffffffff168373ffffffffffffffffffffffffffffffffffffffff16145b611f08576040517f08c379a0000000000000000000000000000000000000000000000000000000008152600401611eff90613231565b60405180910390fd5b50505050565b60008060e883901c905060e8611f25868684612222565b62ffffff16901b9150509392505050565b600073ffffffffffffffffffffffffffffffffffffffff83169250814260a01b178317905092915050565b50505050565b60008054905060008203611f8657611f8563b562e8dd60e01b6116a5565b5b611f936000848385611e56565b611fb383611fa46000866000611f0e565b611fad8561222b565b17611f36565b6004600083815260200190815260200160002081905550600160406001901b178202600560008573ffffffffffffffffffffffffffffffffffffffff1673ffffffffffffffffffffffffffffffffffffffff16815260200190815260200160002060008282540192505081905550600073ffffffffffffffffffffffffffffffffffffffff8473ffffffffffffffffffffffffffffffffffffffff161690506000810361206b5761206a632e07630060e01b6116a5565b5b60008383019050600083905061207f61173f565b60018303111561209a576120996381647e3a60e01b6116a5565b5b5b808360007fddf252ad1be2c89b69c2b068fc378daa952ba7f163c4a11628f55a4df523b3ef600080a481816001019150810361209b57816000819055505050506120e86000848385611f61565b505050565b60008373ffffffffffffffffffffffffffffffffffffffff1663150b7a02612113611e0a565b8786866040518563ffffffff1660e01b815260040161213594939291906132a6565b6020604051808303816000875af192505050801561217157506040513d601f19601f8201168201806040525081019061216e9190613307565b60015b6121c9573d80600081146121a1576040519150601f19603f3d011682016040523d82523d6000602084013e6121a6565b606091505b5060008151036121c1576121c063d1a57ed660e01b6116a5565b5b805181602001fd5b63150b7a0260e01b7bffffffffffffffffffffffffffffffffffffffffffffffffffffffff1916817bffffffffffffffffffffffffffffffffffffffffffffffffffffffff191614915050949350505050565b50505050565b60009392505050565b60006001821460e11b9050919050565b6000604051905090565b600080fd5b600080fd5b60007fffffffff0000000000000000000000000000000000000000000000000000000082169050919050565b6122848161224f565b811461228f57600080fd5b50565b6000813590506122a18161227b565b92915050565b6000602082840312156122bd576122bc612245565b5b60006122cb84828501612292565b91505092915050565b60008115159050919050565b6122e9816122d4565b82525050565b600060208201905061230460008301846122e0565b92915050565b600081519050919050565b600082825260208201905092915050565b60005b83811015612344578082015181840152602081019050612329565b60008484015250505050565b6000601f19601f8301169050919050565b600061236c8261230a565b6123768185612315565b9350612386818560208601612326565b61238f81612350565b840191505092915050565b600060208201905081810360008301526123b48184612361565b905092915050565b6000819050919050565b6123cf816123bc565b81146123da57600080fd5b50565b6000813590506123ec816123c6565b92915050565b60006020828403121561240857612407612245565b5b6000612416848285016123dd565b91505092915050565b600073ffffffffffffffffffffffffffffffffffffffff82169050919050565b600061244a8261241f565b9050919050565b61245a8161243f565b82525050565b60006020820190506124756000830184612451565b92915050565b6124848161243f565b811461248f57600080fd5b50565b6000813590506124a18161247b565b92915050565b600080604083850312156124be576124bd612245565b5b60006124cc85828601612492565b92505060206124dd858286016123dd565b9150509250929050565b6124f0816122d4565b81146124fb57600080fd5b50565b60008135905061250d816124e7565b92915050565b60006020828403121561252957612528612245565b5b6000612537848285016124fe565b91505092915050565b612549816123bc565b82525050565b60006020820190506125646000830184612540565b92915050565b60008060006060848603121561258357612582612245565b5b600061259186828701612492565b93505060206125a286828701612492565b92505060406125b3868287016123dd565b9150509250925092565b6000602082840312156125d3576125d2612245565b5b60006125e184828501612492565b91505092915050565b600080fd5b600080fd5b7f4e487b7100000000000000000000000000000000000000000000000000000000600052604160045260246000fd5b61262c82612350565b810181811067ffffffffffffffff8211171561264b5761264a6125f4565b5b80604052505050565b600061265e61223b565b905061266a8282612623565b919050565b600067ffffffffffffffff82111561268a576126896125f4565b5b61269382612350565b9050602081019050919050565b82818337600083830152505050565b60006126c26126bd8461266f565b612654565b9050828152602081018484840111156126de576126dd6125ef565b5b6126e98482856126a0565b509392505050565b600082601f830112612706576127056125ea565b5b81356127168482602086016126af565b91505092915050565b60006020828403121561273557612734612245565b5b600082013567ffffffffffffffff8111156127535761275261224a565b5b61275f848285016126f1565b91505092915050565b6000806040838503121561277f5761277e612245565b5b600061278d85828601612492565b925050602061279e858286016124fe565b9150509250929050565b600067ffffffffffffffff8211156127c3576127c26125f4565b5b6127cc82612350565b9050602081019050919050565b60006127ec6127e7846127a8565b612654565b905082815260208101848484011115612808576128076125ef565b5b6128138482856126a0565b509392505050565b600082601f8301126128305761282f6125ea565b5b81356128408482602086016127d9565b91505092915050565b6000806000806080858703121561286357612862612245565b5b600061287187828801612492565b945050602061288287828801612492565b9350506040612893878288016123dd565b925050606085013567ffffffffffffffff8111156128b4576128b361224a565b5b6128c08782880161281b565b91505092959194509250565b600080604083850312156128e3576128e2612245565b5b60006128f185828601612492565b925050602061290285828601612492565b9150509250929050565b7f4e487b7100000000000000000000000000000000000000000000000000000000600052602260045260246000fd5b6000600282049050600182168061295357607f821691505b6020821081036129665761296561290c565b5b50919050565b7f5342543a20617070726f76616c206973206e6f7420616c6c6f77656400000000600082015250565b60006129a2601c83612315565b91506129ad8261296c565b602082019050919050565b600060208201905081810360008301526129d181612995565b9050919050565b7f5342543a207472616e73666572206973206e6f7420616c6c6f77656400000000600082015250565b6000612a0e601c83612315565b9150612a19826129d8565b602082019050919050565b60006020820190508181036000830152612a3d81612a01565b9050919050565b7f4e487b7100000000000000000000000000000000000000000000000000000000600052601160045260246000fd5b6000612a7e826123bc565b9150612a89836123bc565b9250828203905081811115612aa157612aa0612a44565b5b92915050565b7f4275726e2066756e6374696f6e616c6974792069732064697361626c65640000600082015250565b6000612add601e83612315565b9150612ae882612aa7565b602082019050919050565b60006020820190508181036000830152612b0c81612ad0565b9050919050565b7f43616c6c6572206973206e6f742074686520746f6b656e206f776e6572000000600082015250565b6000612b49601d83612315565b9150612b5482612b13565b602082019050919050565b60006020820190508181036000830152612b7881612b3c565b9050919050565b60008190508160005260206000209050919050565b60006020601f8301049050919050565b600082821b905092915050565b600060088302612be17fffffffffffffffffffffffffffffffffffffffffffffffffffffffffffffffff82612ba4565b612beb8683612ba4565b95508019841693508086168417925050509392505050565b6000819050919050565b6000612c28612c23612c1e846123bc565b612c03565b6123bc565b9050919050565b6000819050919050565b612c4283612c0d565b612c56612c4e82612c2f565b848454612bb1565b825550505050565b600090565b612c6b612c5e565b612c76818484612c39565b505050565b5b81811015612c9a57612c8f600082612c63565b600181019050612c7c565b5050565b601f821115612cdf57612cb081612b7f565b612cb984612b94565b81016020851015612cc8578190505b612cdc612cd485612b94565b830182612c7b565b50505b505050565b600082821c905092915050565b6000612d0260001984600802612ce4565b1980831691505092915050565b6000612d1b8383612cf1565b9150826002028217905092915050565b612d348261230a565b67ffffffffffffffff811115612d4d57612d4c6125f4565b5b612d57825461293b565b612d62828285612c9e565b600060209050601f831160018114612d955760008415612d83578287015190505b612d8d8582612d0f565b865550612df5565b601f198416612da386612b7f565b60005b82811015612dcb57848901518255600182019150602085019450602081019050612da6565b86831015612de85784890151612de4601f891682612cf1565b8355505b6001600288020188555050505b505050505050565b7f5342543a20746f6b656e20646f6573206e6f7420657869737400000000000000600082015250565b6000612e33601983612315565b9150612e3e82612dfd565b602082019050919050565b60006020820190508181036000830152612e6281612e26565b9050919050565b7f4d696e74696e6720697320706175736564000000000000000000000000000000600082015250565b6000612e9f601183612315565b9150612eaa82612e69565b602082019050919050565b60006020820190508181036000830152612ece81612e92565b9050919050565b7f5175616e74697479206d7573742062652067726561746572207468616e203000600082015250565b6000612f0b601f83612315565b9150612f1682612ed5565b602082019050919050565b60006020820190508181036000830152612f3a81612efe565b9050919050565b7f457863656564732072656d61696e696e6720737570706c790000000000000000600082015250565b6000612f77601883612315565b9150612f8282612f41565b602082019050919050565b60006020820190508181036000830152612fa681612f6a565b9050919050565b6000612fb8826123bc565b9150612fc3836123bc565b9250828201905080821115612fdb57612fda612a44565b5b92915050565b7f45786365656473206d6178206d696e7420706572206164647265737300000000600082015250565b6000613017601c83612315565b915061302282612fe1565b602082019050919050565b600060208201905081810360008301526130468161300a565b9050919050565b7f5342543a20617070726f76616c20666f7220616c6c206973206e6f7420616c6c60008201527f6f77656400000000000000000000000000000000000000000000000000000000602082015250565b60006130a9602483612315565b91506130b48261304d565b604082019050919050565b600060208201905081810360008301526130d88161309c565b9050919050565b600081905092915050565b60006130f58261230a565b6130ff81856130df565b935061310f818560208601612326565b80840191505092915050565b7f2e6a736f6e000000000000000000000000000000000000000000000000000000600082015250565b60006131516005836130df565b915061315c8261311b565b600582019050919050565b600061317382856130ea565b915061317f82846130ea565b915061318a82613144565b91508190509392505050565b60006131a1826123bc565b9150600082036131b4576131b3612a44565b5b600182039050919050565b7f5342543a20746f6b656e207472616e73666572206973206e6f7420616c6c6f7760008201527f6564000000000000000000000000000000000000000000000000000000000000602082015250565b600061321b602283612315565b9150613226826131bf565b604082019050919050565b6000602082019050818103600083015261324a8161320e565b9050919050565b600081519050919050565b600082825260208201905092915050565b600061327882613251565b613282818561325c565b9350613292818560208601612326565b61329b81612350565b840191505092915050565b60006080820190506132bb6000830187612451565b6132c86020830186612451565b6132d56040830185612540565b81810360608301526132e7818461326d565b905095945050505050565b6000815190506133018161227b565b92915050565b60006020828403121561331d5761331c612245565b5b600061332b848285016132f2565b9150509291505056fea2646970667358221220b8bafc54263e6c7329bc62835c2be827b01b906e7c47f8cc2469cd3c8de73f6f64736f6c63430008180033",
  "linkReferences": {},
  "deployedLinkReferences": {}
}