{
  "_format": "hh-sol-artifact-1",
  "contractName": "StandardERC721A",
  "sourceName": "contracts/erc721a/StandardERC721A.sol",
  "abi": [
    {
      "inputs": [
        {
          "internalType": "string",
          "name": "_name",
          "type": "string"
        },
        {
          "internalType": "string",
          "name": "_symbol",
          "type": "string"
        },
        {
          "internalType": "string",
          "name": "_initialBaseURI",
          "type": "string"
        },
        {
          "internalType": "uint256",
          "name": "_maxSupply",
          "type": "uint256"
        },
        {
          "internalType": "uint256",
          "name": "_maxMintAmount",
          "type": "uint256"
        }
      ],
      "stateMutability": "nonpayable",
      "type": "constructor"
    },
    {
      "inputs": [],
      "name": "ApprovalCallerNotOwnerNorApproved",
      "type": "error"
    },
    {
      "inputs": [],
      "name": "ApprovalQueryForNonexistentToken",
      "type": "error"
    },
    {
      "inputs": [],
      "name": "BalanceQueryForZeroAddress",
      "type": "error"
    },
    {
      "inputs": [],
      "name": "MintERC2309QuantityExceedsLimit",
      "type": "error"
    },
    {
      "inputs": [],
      "name": "MintToZeroAddress",
      "type": "error"
    },
    {
      "inputs": [],
      "name": "MintZeroQuantity",
      "type": "error"
    },
    {
      "inputs": [],
      "name": "NotCompatibleWithSpotMints",
      "type": "error"
    },
    {
      "inputs": [
        {
          "internalType": "address",
          "name": "owner",
          "type": "address"
        }
      ],
      "name": "OwnableInvalidOwner",
      "type": "error"
    },
    {
      "inputs": [
        {
          "internalType": "address",
          "name": "account",
          "type": "address"
        }
      ],
      "name": "OwnableUnauthorizedAccount",
      "type": "error"
    },
    {
      "inputs": [],
      "name": "OwnerQueryForNonexistentToken",
      "type": "error"
    },
    {
      "inputs": [],
      "name": "OwnershipNotInitializedForExtraData",
      "type": "error"
    },
    {
      "inputs": [],
      "name": "SequentialMintExceedsLimit",
      "type": "error"
    },
    {
      "inputs": [],
      "name": "SequentialUpToTooSmall",
      "type": "error"
    },
    {
      "inputs": [],
      "name": "SpotMintTokenIdTooSmall",
      "type": "error"
    },
    {
      "inputs": [],
      "name": "TokenAlreadyExists",
      "type": "error"
    },
    {
      "inputs": [],
      "name": "TransferCallerNotOwnerNorApproved",
      "type": "error"
    },
    {
      "inputs": [],
      "name": "TransferFromIncorrectOwner",
      "type": "error"
    },
    {
      "inputs": [],
      "name": "TransferToNonERC721ReceiverImplementer",
      "type": "error"
    },
    {
      "inputs": [],
      "name": "TransferToZeroAddress",
      "type": "error"
    },
    {
      "inputs": [],
      "name": "URIQueryForNonexistentToken",
      "type": "error"
    },
    {
      "anonymous": false,
      "inputs": [
        {
          "indexed": true,
          "internalType": "address",
          "name": "owner",
          "type": "address"
        },
        {
          "indexed": true,
          "internalType": "address",
          "name": "approved",
          "type": "address"
        },
        {
          "indexed": true,
          "internalType": "uint256",
          "name": "tokenId",
          "type": "uint256"
        }
      ],
      "name": "Approval",
      "type": "event"
    },
    {
      "anonymous": false,
      "inputs": [
        {
          "indexed": true,
          "internalType": "address",
          "name": "owner",
          "type": "address"
        },
        {
          "indexed": true,
          "internalType": "address",
          "name": "operator",
          "type": "address"
        },
        {
          "indexed": false,
          "internalType": "bool",
          "name": "approved",
          "type": "bool"
        }
      ],
      "name": "ApprovalForAll",
      "type": "event"
    },
    {
      "anonymous": false,
      "inputs": [
        {
          "indexed": true,
          "internalType": "uint256",
          "name": "fromTokenId",
          "type": "uint256"
        },
        {
          "indexed": false,
          "internalType": "uint256",
          "name": "toTokenId",
          "type": "uint256"
        },
        {
          "indexed": true,
          "internalType": "address",
          "name": "from",
          "type": "address"
        },
        {
          "indexed": true,
          "internalType": "address",
          "name": "to",
          "type": "address"
        }
      ],
      "name": "ConsecutiveTransfer",
      "type": "event"
    },
    {
      "anonymous": false,
      "inputs": [
        {
          "indexed": true,
          "internalType": "address",
          "name": "previousOwner",
          "type": "address"
        },
        {
          "indexed": true,
          "internalType": "address",
          "name": "newOwner",
          "type": "address"
        }
      ],
      "name": "OwnershipTransferred",
      "type": "event"
    },
    {
      "anonymous": false,
      "inputs": [
        {
          "indexed": true,
          "internalType": "address",
          "name": "from",
          "type": "address"
        },
        {
          "indexed": true,
          "internalType": "address",
          "name": "to",
          "type": "address"
        },
        {
          "indexed": true,
          "internalType": "uint256",
          "name": "tokenId",
          "type": "uint256"
        }
      ],
      "name": "Transfer",
      "type": "event"
    },
    {
      "inputs": [
        {
          "internalType": "address",
          "name": "to",
          "type": "address"
        },
        {
          "internalType": "uint256",
          "name": "tokenId",
          "type": "uint256"
        }
      ],
      "name": "approve",
      "outputs": [],
      "stateMutability": "payable",
      "type": "function"
    },
    {
      "inputs": [
        {
          "internalType": "address",
          "name": "owner",
          "type": "address"
        }
      ],
      "name": "balanceOf",
      "outputs": [
        {
          "internalType": "uint256",
          "name": "",
          "type": "uint256"
        }
      ],
      "stateMutability": "view",
      "type": "function"
    },
    {
      "inputs": [
        {
          "internalType": "uint256",
          "name": "tokenId",
          "type": "uint256"
        }
      ],
      "name": "getApproved",
      "outputs": [
        {
          "internalType": "address",
          "name": "",
          "type": "address"
        }
      ],
      "stateMutability": "view",
      "type": "function"
    },
    {
      "inputs": [
        {
          "internalType": "address",
          "name": "owner",
          "type": "address"
        },
        {
          "internalType": "address",
          "name": "operator",
          "type": "address"
        }
      ],
      "name": "isApprovedForAll",
      "outputs": [
        {
          "internalType": "bool",
          "name": "",
          "type": "bool"
        }
      ],
      "stateMutability": "view",
      "type": "function"
    },
    {
      "inputs": [],
      "name": "maxMintAmount",
      "outputs": [
        {
          "internalType": "uint256",
          "name": "",
          "type": "uint256"
        }
      ],
      "stateMutability": "view",
      "type": "function"
    },
    {
      "inputs": [],
      "name": "maxSupply",
      "outputs": [
        {
          "internalType": "uint256",
          "name": "",
          "type": "uint256"
        }
      ],
      "stateMutability": "view",
      "type": "function"
    },
    {
      "inputs": [
        {
          "internalType": "uint256",
          "name": "_quantity",
          "type": "uint256"
        }
      ],
      "name": "mint",
      "outputs": [],
      "stateMutability": "nonpayable",
      "type": "function"
    },
    {
      "inputs": [],
      "name": "name",
      "outputs": [
        {
          "internalType": "string",
          "name": "",
          "type": "string"
        }
      ],
      "stateMutability": "view",
      "type": "function"
    },
    {
      "inputs": [],
      "name": "owner",
      "outputs": [
        {
          "internalType": "address",
          "name": "",
          "type": "address"
        }
      ],
      "stateMutability": "view",
      "type": "function"
    },
    {
      "inputs": [
        {
          "internalType": "uint256",
          "name": "tokenId",
          "type": "uint256"
        }
      ],
      "name": "ownerOf",
      "outputs": [
        {
          "internalType": "address",
          "name": "",
          "type": "address"
        }
      ],
      "stateMutability": "view",
      "type": "function"
    },
    {
      "inputs": [],
      "name": "paused",
      "outputs": [
        {
          "internalType": "bool",
          "name": "",
          "type": "bool"
        }
      ],
      "stateMutability": "view",
      "type": "function"
    },
    {
      "inputs": [],
      "name": "renounceOwnership",
      "outputs": [],
      "stateMutability": "nonpayable",
      "type": "function"
    },
    {
      "inputs": [
        {
          "internalType": "address",
          "name": "from",
          "type": "address"
        },
        {
          "internalType": "address",
          "name": "to",
          "type": "address"
        },
        {
          "internalType": "uint256",
          "name": "tokenId",
          "type": "uint256"
        }
      ],
      "name": "safeTransferFrom",
      "outputs": [],
      "stateMutability": "payable",
      "type": "function"
    },
    {
      "inputs": [
        {
          "internalType": "address",
          "name": "from",
          "type": "address"
        },
        {
          "internalType": "address",
          "name": "to",
          "type": "address"
        },
        {
          "internalType": "uint256",
          "name": "tokenId",
          "type": "uint256"
        },
        {
          "internalType": "bytes",
          "name": "_data",
          "type": "bytes"
        }
      ],
      "name": "safeTransferFrom",
      "outputs": [],
      "stateMutability": "payable",
      "type": "function"
    },
    {
      "inputs": [
        {
          "internalType": "address",
          "name": "operator",
          "type": "address"
        },
        {
          "internalType": "bool",
          "name": "approved",
          "type": "bool"
        }
      ],
      "name": "setApprovalForAll",
      "outputs": [],
      "stateMutability": "nonpayable",
      "type": "function"
    },
    {
      "inputs": [
        {
          "internalType": "string",
          "name": "_newBaseURI",
          "type": "string"
        }
      ],
      "name": "setBaseURI",
      "outputs": [],
      "stateMutability": "nonpayable",
      "type": "function"
    },
    {
      "inputs": [
        {
          "internalType": "uint256",
          "name": "_newMaxMintAmount",
          "type": "uint256"
        }
      ],
      "name": "setMaxMintAmount",
      "outputs": [],
      "stateMutability": "nonpayable",
      "type": "function"
    },
    {
      "inputs": [
        {
          "internalType": "uint256",
          "name": "_newMaxSupply",
          "type": "uint256"
        }
      ],
      "name": "setMaxSupply",
      "outputs": [],
      "stateMutability": "nonpayable",
      "type": "function"
    },
    {
      "inputs": [
        {
          "internalType": "bool",
          "name": "_paused",
          "type": "bool"
        }
      ],
      "name": "setPaused",
      "outputs": [],
      "stateMutability": "nonpayable",
      "type": "function"
    },
    {
      "inputs": [
        {
          "internalType": "bytes4",
          "name": "interfaceId",
          "type": "bytes4"
        }
      ],
      "name": "supportsInterface",
      "outputs": [
        {
          "internalType": "bool",
          "name": "",
          "type": "bool"
        }
      ],
      "stateMutability": "view",
      "type": "function"
    },
    {
      "inputs": [],
      "name": "symbol",
      "outputs": [
        {
          "internalType": "string",
          "name": "",
          "type": "string"
        }
      ],
      "stateMutability": "view",
      "type": "function"
    },
    {
      "inputs": [
        {
          "internalType": "uint256",
          "name": "_tokenId",
          "type": "uint256"
        }
      ],
      "name": "tokenURI",
      "outputs": [
        {
          "internalType": "string",
          "name": "",
          "type": "string"
        }
      ],
      "stateMutability": "view",
      "type": "function"
    },
    {
      "inputs": [],
      "name": "totalSupply",
      "outputs": [
        {
          "internalType": "uint256",
          "name": "result",
          "type": "uint256"
        }
      ],
      "stateMutability": "view",
      "type": "function"
    },
    {
      "inputs": [
        {
          "internalType": "address",
          "name": "from",
          "type": "address"
        },
        {
          "internalType": "address",
          "name": "to",
          "type": "address"
        },
        {
          "internalType": "uint256",
          "name": "tokenId",
          "type": "uint256"
        }
      ],
      "name": "transferFrom",
      "outputs": [],
      "stateMutability": "payable",
      "type": "function"
    },
    {
      "inputs": [
        {
          "internalType": "address",
          "name": "newOwner",
          "type": "address"
        }
      ],
      "name": "transferOwnership",
      "outputs": [],
      "stateMutability": "nonpayable",
      "type": "function"
    }
  ],
  "bytecode": "0x60806040526000600d60006101000a81548160ff0219169083151502179055503480156200002c57600080fd5b506040516200324138038062003241833981810160405281019062000052919062000559565b620000626200019160201b60201c565b858581600290816200007591906200087f565b5080600390816200008791906200087f565b50620000986200019960201b60201c565b600081905550620000ae6200019960201b60201c565b620000be620001a260201b60201c565b1015620000de57620000dd63fed8210f60e01b620001ca60201b60201c565b5b5050600073ffffffffffffffffffffffffffffffffffffffff168173ffffffffffffffffffffffffffffffffffffffff1603620001555760006040517f1e4fbdf70000000000000000000000000000000000000000000000000000000081526004016200014c9190620009ab565b60405180910390fd5b6200016681620001d460201b60201c565b5062000178836200029a60201b60201c565b81600b8190555080600c819055505050505050620009c8565b600033905090565b60006001905090565b60007fffffffffffffffffffffffffffffffffffffffffffffffffffffffffffffffff905090565b8060005260046000fd5b6000600960009054906101000a900473ffffffffffffffffffffffffffffffffffffffff16905081600960006101000a81548173ffffffffffffffffffffffffffffffffffffffff021916908373ffffffffffffffffffffffffffffffffffffffff1602179055508173ffffffffffffffffffffffffffffffffffffffff168173ffffffffffffffffffffffffffffffffffffffff167f8be0079c531659141344cd1fd0a4f28419497f9722a3daafe3b4186f6b6457e060405160405180910390a35050565b620002aa620002bf60201b60201c565b80600a9081620002bb91906200087f565b5050565b620002cf6200019160201b60201c565b73ffffffffffffffffffffffffffffffffffffffff16620002f56200036160201b60201c565b73ffffffffffffffffffffffffffffffffffffffff16146200035f57620003216200019160201b60201c565b6040517f118cdaa7000000000000000000000000000000000000000000000000000000008152600401620003569190620009ab565b60405180910390fd5b565b6000600960009054906101000a900473ffffffffffffffffffffffffffffffffffffffff16905090565b6000604051905090565b600080fd5b600080fd5b600080fd5b600080fd5b6000601f19601f8301169050919050565b7f4e487b7100000000000000000000000000000000000000000000000000000000600052604160045260246000fd5b620003f482620003a9565b810181811067ffffffffffffffff82111715620004165762000415620003ba565b5b80604052505050565b60006200042b6200038b565b9050620004398282620003e9565b919050565b600067ffffffffffffffff8211156200045c576200045b620003ba565b5b6200046782620003a9565b9050602081019050919050565b60005b838110156200049457808201518184015260208101905062000477565b60008484015250505050565b6000620004b7620004b1846200043e565b6200041f565b905082815260208101848484011115620004d657620004d5620003a4565b5b620004e384828562000474565b509392505050565b600082601f8301126200050357620005026200039f565b5b815162000515848260208601620004a0565b91505092915050565b6000819050919050565b62000533816200051e565b81146200053f57600080fd5b50565b600081519050620005538162000528565b92915050565b600080600080600060a0868803121562000578576200057762000395565b5b600086015167ffffffffffffffff8111156200059957620005986200039a565b5b620005a788828901620004eb565b955050602086015167ffffffffffffffff811115620005cb57620005ca6200039a565b5b620005d988828901620004eb565b945050604086015167ffffffffffffffff811115620005fd57620005fc6200039a565b5b6200060b88828901620004eb565b93505060606200061e8882890162000542565b9250506080620006318882890162000542565b9150509295509295909350565b600081519050919050565b7f4e487b7100000000000000000000000000000000000000000000000000000000600052602260045260246000fd5b600060028204905060018216806200069157607f821691505b602082108103620006a757620006a662000649565b5b50919050565b60008190508160005260206000209050919050565b60006020601f8301049050919050565b600082821b905092915050565b600060088302620007117fffffffffffffffffffffffffffffffffffffffffffffffffffffffffffffffff82620006d2565b6200071d8683620006d2565b95508019841693508086168417925050509392505050565b6000819050919050565b6000620007606200075a62000754846200051e565b62000735565b6200051e565b9050919050565b6000819050919050565b6200077c836200073f565b620007946200078b8262000767565b848454620006df565b825550505050565b600090565b620007ab6200079c565b620007b881848462000771565b505050565b5b81811015620007e057620007d4600082620007a1565b600181019050620007be565b5050565b601f8211156200082f57620007f981620006ad565b6200080484620006c2565b8101602085101562000814578190505b6200082c6200082385620006c2565b830182620007bd565b50505b505050565b600082821c905092915050565b6000620008546000198460080262000834565b1980831691505092915050565b60006200086f838362000841565b9150826002028217905092915050565b6200088a826200063e565b67ffffffffffffffff811115620008a657620008a5620003ba565b5b620008b2825462000678565b620008bf828285620007e4565b600060209050601f831160018114620008f75760008415620008e2578287015190505b620008ee858262000861565b8655506200095e565b601f1984166200090786620006ad565b60005b8281101562000931578489015182556001820191506020850194506020810190506200090a565b868310156200095157848901516200094d601f89168262000841565b8355505b6001600288020188555050505b505050505050565b600073ffffffffffffffffffffffffffffffffffffffff82169050919050565b6000620009938262000966565b9050919050565b620009a58162000986565b82525050565b6000602082019050620009c260008301846200099a565b92915050565b61286980620009d86000396000f3fe6080604052600436106101665760003560e01c80636352211e116100d1578063a0712d681161008a578063c87b56dd11610064578063c87b56dd146104de578063d5abeb011461051b578063e985e9c514610546578063f2fde38b1461058357610166565b8063a0712d6814610470578063a22cb46514610499578063b88d4fde146104c257610166565b80636352211e146103605780636f8b44b01461039d57806370a08231146103c6578063715018a6146104035780638da5cb5b1461041a57806395d89b411461044557610166565b806318160ddd1161012357806318160ddd1461027e578063239c70ae146102a957806323b872dd146102d457806342842e0e146102f057806355f804b31461030c5780635c975abb1461033557610166565b806301ffc9a71461016b57806306fdde03146101a8578063081812fc146101d3578063088a4ed014610210578063095ea7b31461023957806316c38b3c14610255575b600080fd5b34801561017757600080fd5b50610192600480360381019061018d9190611aa8565b6105ac565b60405161019f9190611af0565b60405180910390f35b3480156101b457600080fd5b506101bd61063e565b6040516101ca9190611b9b565b60405180910390f35b3480156101df57600080fd5b506101fa60048036038101906101f59190611bf3565b6106d0565b6040516102079190611c61565b60405180910390f35b34801561021c57600080fd5b5061023760048036038101906102329190611bf3565b61072e565b005b610253600480360381019061024e9190611ca8565b610740565b005b34801561026157600080fd5b5061027c60048036038101906102779190611d14565b610750565b005b34801561028a57600080fd5b50610293610775565b6040516102a09190611d50565b60405180910390f35b3480156102b557600080fd5b506102be6107c2565b6040516102cb9190611d50565b60405180910390f35b6102ee60048036038101906102e99190611d6b565b6107c8565b005b61030a60048036038101906103059190611d6b565b610a89565b005b34801561031857600080fd5b50610333600480360381019061032e9190611ef3565b610aa9565b005b34801561034157600080fd5b5061034a610ac4565b6040516103579190611af0565b60405180910390f35b34801561036c57600080fd5b5061038760048036038101906103829190611bf3565b610ad7565b6040516103949190611c61565b60405180910390f35b3480156103a957600080fd5b506103c460048036038101906103bf9190611bf3565b610ae9565b005b3480156103d257600080fd5b506103ed60048036038101906103e89190611f3c565b610afb565b6040516103fa9190611d50565b60405180910390f35b34801561040f57600080fd5b50610418610b92565b005b34801561042657600080fd5b5061042f610ba6565b60405161043c9190611c61565b60405180910390f35b34801561045157600080fd5b5061045a610bd0565b6040516104679190611b9b565b60405180910390f35b34801561047c57600080fd5b5061049760048036038101906104929190611bf3565b610c62565b005b3480156104a557600080fd5b506104c060048036038101906104bb9190611f69565b610da4565b005b6104dc60048036038101906104d7919061204a565b610eaf565b005b3480156104ea57600080fd5b5061050560048036038101906105009190611bf3565b610f01565b6040516105129190611b9b565b60405180910390f35b34801561052757600080fd5b50610530610f3b565b60405161053d9190611d50565b60405180910390f35b34801561055257600080fd5b5061056d600480360381019061056891906120cd565b610f41565b60405161057a9190611af0565b60405180910390f35b34801561058f57600080fd5b506105aa60048036038101906105a59190611f3c565b610fd5565b005b60006301ffc9a760e01b827bffffffffffffffffffffffffffffffffffffffffffffffffffffffff1916148061060757506380ac58cd60e01b827bffffffffffffffffffffffffffffffffffffffffffffffffffffffff1916145b806106375750635b5e139f60e01b827bffffffffffffffffffffffffffffffffffffffffffffffffffffffff1916145b9050919050565b60606002805461064d9061213c565b80601f01602080910402602001604051908101604052809291908181526020018280546106799061213c565b80156106c65780601f1061069b576101008083540402835291602001916106c6565b820191906000526020600020905b8154815290600101906020018083116106a957829003601f168201915b5050505050905090565b60006106db8261105b565b6106f0576106ef63cf4700e460e01b611107565b5b6006600083815260200190815260200160002060000160009054906101000a900473ffffffffffffffffffffffffffffffffffffffff169050919050565b610736611111565b80600c8190555050565b61074c82826001611198565b5050565b610758611111565b80600d60006101000a81548160ff02191690831515021790555050565b600061077f6112c7565b600154600054030390507fffffffffffffffffffffffffffffffffffffffffffffffffffffffffffffffff6107b26112d0565b146107bf57600854810190505b90565b600c5481565b60006107d3826112f8565b905073ffffffffffffffffffffffffffffffffffffffff8473ffffffffffffffffffffffffffffffffffffffff161693508373ffffffffffffffffffffffffffffffffffffffff168173ffffffffffffffffffffffffffffffffffffffff16146108485761084763a114810060e01b611107565b5b60008061085484611411565b9150915061086a8187610865611438565b611440565b6108955761087f8661087a611438565b610f41565b610894576108936359c896be60e01b611107565b5b5b6108a28686866001611484565b80156108ad57600082555b600560008773ffffffffffffffffffffffffffffffffffffffff1673ffffffffffffffffffffffffffffffffffffffff168152602001908152602001600020600081546001900391905081905550600560008673ffffffffffffffffffffffffffffffffffffffff1673ffffffffffffffffffffffffffffffffffffffff168152602001908152602001600020600081546001019190508190555061097b8561095788888761148a565b7c0200000000000000000000000000000000000000000000000000000000176114b2565b600460008681526020019081526020016000208190555060007c0200000000000000000000000000000000000000000000000000000000841603610a0157600060018501905060006004600083815260200190815260200160002054036109ff5760005481146109fe578360046000838152602001908152602001600020819055505b5b505b600073ffffffffffffffffffffffffffffffffffffffff8673ffffffffffffffffffffffffffffffffffffffff161690508481887fddf252ad1be2c89b69c2b068fc378daa952ba7f163c4a11628f55a4df523b3ef600080a460008103610a7357610a7263ea553b3460e01b611107565b5b610a8087878760016114dd565b50505050505050565b610aa483838360405180602001604052806000815250610eaf565b505050565b610ab1611111565b80600a9081610ac09190612319565b5050565b600d60009054906101000a900460ff1681565b6000610ae2826112f8565b9050919050565b610af1611111565b80600b8190555050565b60008073ffffffffffffffffffffffffffffffffffffffff168273ffffffffffffffffffffffffffffffffffffffff1603610b4157610b40638f4eb60460e01b611107565b5b67ffffffffffffffff600560008473ffffffffffffffffffffffffffffffffffffffff1673ffffffffffffffffffffffffffffffffffffffff16815260200190815260200160002054169050919050565b610b9a611111565b610ba460006114e3565b565b6000600960009054906101000a900473ffffffffffffffffffffffffffffffffffffffff16905090565b606060038054610bdf9061213c565b80601f0160208091040260200160405190810160405280929190818152602001828054610c0b9061213c565b8015610c585780601f10610c2d57610100808354040283529160200191610c58565b820191906000526020600020905b815481529060010190602001808311610c3b57829003601f168201915b5050505050905090565b6000610c6c610775565b9050600d60009054906101000a900460ff1615610cbe576040517f08c379a0000000000000000000000000000000000000000000000000000000008152600401610cb590612437565b60405180910390fd5b60008211610d01576040517f08c379a0000000000000000000000000000000000000000000000000000000008152600401610cf8906124c9565b60405180910390fd5b600b548282610d109190612518565b1115610d51576040517f08c379a0000000000000000000000000000000000000000000000000000000008152600401610d48906125be565b60405180910390fd5b600c54821115610d96576040517f08c379a0000000000000000000000000000000000000000000000000000000008152600401610d8d90612650565b60405180910390fd5b610da033836115a9565b5050565b8060076000610db1611438565b73ffffffffffffffffffffffffffffffffffffffff1673ffffffffffffffffffffffffffffffffffffffff16815260200190815260200160002060008473ffffffffffffffffffffffffffffffffffffffff1673ffffffffffffffffffffffffffffffffffffffff16815260200190815260200160002060006101000a81548160ff0219169083151502179055508173ffffffffffffffffffffffffffffffffffffffff16610e5e611438565b73ffffffffffffffffffffffffffffffffffffffff167f17307eab39ab6107e8899845ad3d59bd9653f200f220920489ca2b5937696c3183604051610ea39190611af0565b60405180910390a35050565b610eba8484846107c8565b60008373ffffffffffffffffffffffffffffffffffffffff163b14610efb57610ee5848484846115c7565b610efa57610ef963d1a57ed660e01b611107565b5b5b50505050565b6060610f0b6116f6565b610f1483611788565b604051602001610f259291906126f8565b6040516020818303038152906040529050919050565b600b5481565b6000600760008473ffffffffffffffffffffffffffffffffffffffff1673ffffffffffffffffffffffffffffffffffffffff16815260200190815260200160002060008373ffffffffffffffffffffffffffffffffffffffff1673ffffffffffffffffffffffffffffffffffffffff16815260200190815260200160002060009054906101000a900460ff16905092915050565b610fdd611111565b600073ffffffffffffffffffffffffffffffffffffffff168173ffffffffffffffffffffffffffffffffffffffff160361104f5760006040517f1e4fbdf70000000000000000000000000000000000000000000000000000000081526004016110469190611c61565b60405180910390fd5b611058816114e3565b50565b6000816110666112c7565b11611101576110736112d0565b82111561109d5761109660046000848152602001908152602001600020546117d8565b9050611102565b6000548210156111005760005b60006004600085815260200190815260200160002054915081036110d957826110d290612727565b92506110aa565b60007c01000000000000000000000000000000000000000000000000000000008216149150505b5b5b919050565b8060005260046000fd5b611119611819565b73ffffffffffffffffffffffffffffffffffffffff16611137610ba6565b73ffffffffffffffffffffffffffffffffffffffff16146111965761115a611819565b6040517f118cdaa700000000000000000000000000000000000000000000000000000000815260040161118d9190611c61565b60405180910390fd5b565b60006111a383610ad7565b90508180156111e557508073ffffffffffffffffffffffffffffffffffffffff166111cc611438565b73ffffffffffffffffffffffffffffffffffffffff1614155b15611211576111fb816111f6611438565b610f41565b6112105761120f63cfb3b94260e01b611107565b5b5b836006600085815260200190815260200160002060000160006101000a81548173ffffffffffffffffffffffffffffffffffffffff021916908373ffffffffffffffffffffffffffffffffffffffff160217905550828473ffffffffffffffffffffffffffffffffffffffff168273ffffffffffffffffffffffffffffffffffffffff167f8c5be1e5ebec7d5bd14f71427d1e84f3dd0314c0f7b2291e5b200ac8c7c3b92560405160405180910390a450505050565b60006001905090565b60007fffffffffffffffffffffffffffffffffffffffffffffffffffffffffffffffff905090565b6000816113036112c7565b116113fb57600460008381526020019081526020016000205490506113266112d0565b82111561134b57611336816117d8565b61140c5761134a63df2d9b4260e01b611107565b5b600081036113d257600054821061136d5761136c63df2d9b4260e01b611107565b5b5b600460008360019003935083815260200190815260200160002054905060008103156113cd5760007c01000000000000000000000000000000000000000000000000000000008216031561140c576113cc63df2d9b4260e01b611107565b5b61136e565b60007c01000000000000000000000000000000000000000000000000000000008216031561140c575b61140b63df2d9b4260e01b611107565b5b919050565b60008060006006600085815260200190815260200160002090508092508254915050915091565b600033905090565b600073ffffffffffffffffffffffffffffffffffffffff8316925073ffffffffffffffffffffffffffffffffffffffff821691508382148383141790509392505050565b50505050565b60008060e883901c905060e86114a1868684611821565b62ffffff16901b9150509392505050565b600073ffffffffffffffffffffffffffffffffffffffff83169250814260a01b178317905092915050565b50505050565b6000600960009054906101000a900473ffffffffffffffffffffffffffffffffffffffff16905081600960006101000a81548173ffffffffffffffffffffffffffffffffffffffff021916908373ffffffffffffffffffffffffffffffffffffffff1602179055508173ffffffffffffffffffffffffffffffffffffffff168173ffffffffffffffffffffffffffffffffffffffff167f8be0079c531659141344cd1fd0a4f28419497f9722a3daafe3b4186f6b6457e060405160405180910390a35050565b6115c382826040518060200160405280600081525061182a565b5050565b60008373ffffffffffffffffffffffffffffffffffffffff1663150b7a026115ed611438565b8786866040518563ffffffff1660e01b815260040161160f94939291906127a5565b6020604051808303816000875af192505050801561164b57506040513d601f19601f820116820180604052508101906116489190612806565b60015b6116a3573d806000811461167b576040519150601f19603f3d011682016040523d82523d6000602084013e611680565b606091505b50600081510361169b5761169a63d1a57ed660e01b611107565b5b805181602001fd5b63150b7a0260e01b7bffffffffffffffffffffffffffffffffffffffffffffffffffffffff1916817bffffffffffffffffffffffffffffffffffffffffffffffffffffffff191614915050949350505050565b6060600a80546117059061213c565b80601f01602080910402602001604051908101604052809291908181526020018280546117319061213c565b801561177e5780601f106117535761010080835404028352916020019161177e565b820191906000526020600020905b81548152906001019060200180831161176157829003601f168201915b5050505050905090565b606060a060405101806040526020810391506000825281835b6001156117c357600184039350600a81066030018453600a81049050806117a1575b50828103602084039350808452505050919050565b60007c0100000000000000000000000000000000000000000000000000000000821673ffffffffffffffffffffffffffffffffffffffff8316119050919050565b600033905090565b60009392505050565b61183483836118a6565b60008373ffffffffffffffffffffffffffffffffffffffff163b146118a157600080549050600083820390505b61187460008683806001019450866115c7565b6118895761188863d1a57ed660e01b611107565b5b81811061186157816000541461189e57600080fd5b50505b505050565b600080549050600082036118c5576118c463b562e8dd60e01b611107565b5b6118d26000848385611484565b6118f2836118e3600086600061148a565b6118ec85611a2c565b176114b2565b6004600083815260200190815260200160002081905550600160406001901b178202600560008573ffffffffffffffffffffffffffffffffffffffff1673ffffffffffffffffffffffffffffffffffffffff16815260200190815260200160002060008282540192505081905550600073ffffffffffffffffffffffffffffffffffffffff8473ffffffffffffffffffffffffffffffffffffffff16169050600081036119aa576119a9632e07630060e01b611107565b5b6000838301905060008390506119be6112d0565b6001830311156119d9576119d86381647e3a60e01b611107565b5b5b808360007fddf252ad1be2c89b69c2b068fc378daa952ba7f163c4a11628f55a4df523b3ef600080a48181600101915081036119da5781600081905550505050611a2760008483856114dd565b505050565b60006001821460e11b9050919050565b6000604051905090565b600080fd5b600080fd5b60007fffffffff0000000000000000000000000000000000000000000000000000000082169050919050565b611a8581611a50565b8114611a9057600080fd5b50565b600081359050611aa281611a7c565b92915050565b600060208284031215611abe57611abd611a46565b5b6000611acc84828501611a93565b91505092915050565b60008115159050919050565b611aea81611ad5565b82525050565b6000602082019050611b056000830184611ae1565b92915050565b600081519050919050565b600082825260208201905092915050565b60005b83811015611b45578082015181840152602081019050611b2a565b60008484015250505050565b6000601f19601f8301169050919050565b6000611b6d82611b0b565b611b778185611b16565b9350611b87818560208601611b27565b611b9081611b51565b840191505092915050565b60006020820190508181036000830152611bb58184611b62565b905092915050565b6000819050919050565b611bd081611bbd565b8114611bdb57600080fd5b50565b600081359050611bed81611bc7565b92915050565b600060208284031215611c0957611c08611a46565b5b6000611c1784828501611bde565b91505092915050565b600073ffffffffffffffffffffffffffffffffffffffff82169050919050565b6000611c4b82611c20565b9050919050565b611c5b81611c40565b82525050565b6000602082019050611c766000830184611c52565b92915050565b611c8581611c40565b8114611c9057600080fd5b50565b600081359050611ca281611c7c565b92915050565b60008060408385031215611cbf57611cbe611a46565b5b6000611ccd85828601611c93565b9250506020611cde85828601611bde565b9150509250929050565b611cf181611ad5565b8114611cfc57600080fd5b50565b600081359050611d0e81611ce8565b92915050565b600060208284031215611d2a57611d29611a46565b5b6000611d3884828501611cff565b91505092915050565b611d4a81611bbd565b82525050565b6000602082019050611d656000830184611d41565b92915050565b600080600060608486031215611d8457611d83611a46565b5b6000611d9286828701611c93565b9350506020611da386828701611c93565b9250506040611db486828701611bde565b9150509250925092565b600080fd5b600080fd5b7f4e487b7100000000000000000000000000000000000000000000000000000000600052604160045260246000fd5b611e0082611b51565b810181811067ffffffffffffffff82111715611e1f57611e1e611dc8565b5b80604052505050565b6000611e32611a3c565b9050611e3e8282611df7565b919050565b600067ffffffffffffffff821115611e5e57611e5d611dc8565b5b611e6782611b51565b9050602081019050919050565b82818337600083830152505050565b6000611e96611e9184611e43565b611e28565b905082815260208101848484011115611eb257611eb1611dc3565b5b611ebd848285611e74565b509392505050565b600082601f830112611eda57611ed9611dbe565b5b8135611eea848260208601611e83565b91505092915050565b600060208284031215611f0957611f08611a46565b5b600082013567ffffffffffffffff811115611f2757611f26611a4b565b5b611f3384828501611ec5565b91505092915050565b600060208284031215611f5257611f51611a46565b5b6000611f6084828501611c93565b91505092915050565b60008060408385031215611f8057611f7f611a46565b5b6000611f8e85828601611c93565b9250506020611f9f85828601611cff565b9150509250929050565b600067ffffffffffffffff821115611fc457611fc3611dc8565b5b611fcd82611b51565b9050602081019050919050565b6000611fed611fe884611fa9565b611e28565b90508281526020810184848401111561200957612008611dc3565b5b612014848285611e74565b509392505050565b600082601f83011261203157612030611dbe565b5b8135612041848260208601611fda565b91505092915050565b6000806000806080858703121561206457612063611a46565b5b600061207287828801611c93565b945050602061208387828801611c93565b935050604061209487828801611bde565b925050606085013567ffffffffffffffff8111156120b5576120b4611a4b565b5b6120c18782880161201c565b91505092959194509250565b600080604083850312156120e4576120e3611a46565b5b60006120f285828601611c93565b925050602061210385828601611c93565b9150509250929050565b7f4e487b7100000000000000000000000000000000000000000000000000000000600052602260045260246000fd5b6000600282049050600182168061215457607f821691505b6020821081036121675761216661210d565b5b50919050565b60008190508160005260206000209050919050565b60006020601f8301049050919050565b600082821b905092915050565b6000600883026121cf7fffffffffffffffffffffffffffffffffffffffffffffffffffffffffffffffff82612192565b6121d98683612192565b95508019841693508086168417925050509392505050565b6000819050919050565b600061221661221161220c84611bbd565b6121f1565b611bbd565b9050919050565b6000819050919050565b612230836121fb565b61224461223c8261221d565b84845461219f565b825550505050565b600090565b61225961224c565b612264818484612227565b505050565b5b818110156122885761227d600082612251565b60018101905061226a565b5050565b601f8211156122cd5761229e8161216d565b6122a784612182565b810160208510156122b6578190505b6122ca6122c285612182565b830182612269565b50505b505050565b600082821c905092915050565b60006122f0600019846008026122d2565b1980831691505092915050565b600061230983836122df565b9150826002028217905092915050565b61232282611b0b565b67ffffffffffffffff81111561233b5761233a611dc8565b5b612345825461213c565b61235082828561228c565b600060209050601f8311600181146123835760008415612371578287015190505b61237b85826122fd565b8655506123e3565b601f1984166123918661216d565b60005b828110156123b957848901518255600182019150602085019450602081019050612394565b868310156123d657848901516123d2601f8916826122df565b8355505b6001600288020188555050505b505050505050565b7f746865206d696e74696e67206973207061757365640000000000000000000000600082015250565b6000612421601583611b16565b915061242c826123eb565b602082019050919050565b6000602082019050818103600083015261245081612414565b9050919050565b7f746865207175616e74697479206d75737420626520677265617465722074686160008201527f6e20300000000000000000000000000000000000000000000000000000000000602082015250565b60006124b3602383611b16565b91506124be82612457565b604082019050919050565b600060208201905081810360008301526124e2816124a6565b9050919050565b7f4e487b7100000000000000000000000000000000000000000000000000000000600052601160045260246000fd5b600061252382611bbd565b915061252e83611bbd565b9250828201905080821115612546576125456124e9565b5b92915050565b7f746865207175616e746974792069732067726561746572207468616e2074686560008201527f206d617820737570706c79000000000000000000000000000000000000000000602082015250565b60006125a8602b83611b16565b91506125b38261254c565b604082019050919050565b600060208201905081810360008301526125d78161259b565b9050919050565b7f746865207175616e746974792069732067726561746572207468616e2074686560008201527f206d6178206d696e7420616d6f756e7400000000000000000000000000000000602082015250565b600061263a603083611b16565b9150612645826125de565b604082019050919050565b600060208201905081810360008301526126698161262d565b9050919050565b600081905092915050565b600061268682611b0b565b6126908185612670565b93506126a0818560208601611b27565b80840191505092915050565b7f2e6a736f6e000000000000000000000000000000000000000000000000000000600082015250565b60006126e2600583612670565b91506126ed826126ac565b600582019050919050565b6000612704828561267b565b9150612710828461267b565b915061271b826126d5565b91508190509392505050565b600061273282611bbd565b915060008203612745576127446124e9565b5b600182039050919050565b600081519050919050565b600082825260208201905092915050565b600061277782612750565b612781818561275b565b9350612791818560208601611b27565b61279a81611b51565b840191505092915050565b60006080820190506127ba6000830187611c52565b6127c76020830186611c52565b6127d46040830185611d41565b81810360608301526127e6818461276c565b905095945050505050565b60008151905061280081611a7c565b92915050565b60006020828403121561281c5761281b611a46565b5b600061282a848285016127f1565b9150509291505056fea26469706673582212209385cb151b2753a4afeae663c9b421740fb25b27e6c52e091b06fe2c39aaa5a564736f6c63430008180033",
  "linkReferences": {},
  "deployedLinkReferences": {}
}