{
  "_format": "hh-sol-artifact-1",
  "contractName": "GaslessERC721A",
  "sourceName": "contracts/gasless-erc721a/GaslessERC721A.sol",
  "abi": [
    {
      "inputs": [
        {
          "internalType": "string",
          "name": "_name",
          "type": "string"
        },
        {
          "internalType": "string",
          "name": "_symbol",
          "type": "string"
        },
        {
          "internalType": "string",
          "name": "_initialBaseURI",
          "type": "string"
        },
        {
          "internalType": "uint256",
          "name": "_maxSupply",
          "type": "uint256"
        },
        {
          "internalType": "uint256",
          "name": "_maxMintPerAddress",
          "type": "uint256"
        },
        {
          "internalType": "address",
          "name": "_initialRelayer",
          "type": "address"
        }
      ],
      "stateMutability": "nonpayable",
      "type": "constructor"
    },
    {
      "inputs": [],
      "name": "ApprovalCallerNotOwnerNorApproved",
      "type": "error"
    },
    {
      "inputs": [],
      "name": "ApprovalQueryForNonexistentToken",
      "type": "error"
    },
    {
      "inputs": [],
      "name": "BalanceQueryForZeroAddress",
      "type": "error"
    },
    {
      "inputs": [],
      "name": "ECDSAInvalidSignature",
      "type": "error"
    },
    {
      "inputs": [
        {
          "internalType": "uint256",
          "name": "length",
          "type": "uint256"
        }
      ],
      "name": "ECDSAInvalidSignatureLength",
      "type": "error"
    },
    {
      "inputs": [
        {
          "internalType": "bytes32",
          "name": "s",
          "type": "bytes32"
        }
      ],
      "name": "ECDSAInvalidSignatureS",
      "type": "error"
    },
    {
      "inputs": [],
      "name": "MintERC2309QuantityExceedsLimit",
      "type": "error"
    },
    {
      "inputs": [],
      "name": "MintToZeroAddress",
      "type": "error"
    },
    {
      "inputs": [],
      "name": "MintZeroQuantity",
      "type": "error"
    },
    {
      "inputs": [],
      "name": "NotCompatibleWithSpotMints",
      "type": "error"
    },
    {
      "inputs": [
        {
          "internalType": "address",
          "name": "owner",
          "type": "address"
        }
      ],
      "name": "OwnableInvalidOwner",
      "type": "error"
    },
    {
      "inputs": [
        {
          "internalType": "address",
          "name": "account",
          "type": "address"
        }
      ],
      "name": "OwnableUnauthorizedAccount",
      "type": "error"
    },
    {
      "inputs": [],
      "name": "OwnerQueryForNonexistentToken",
      "type": "error"
    },
    {
      "inputs": [],
      "name": "OwnershipNotInitializedForExtraData",
      "type": "error"
    },
    {
      "inputs": [],
      "name": "ReentrancyGuardReentrantCall",
      "type": "error"
    },
    {
      "inputs": [],
      "name": "SequentialMintExceedsLimit",
      "type": "error"
    },
    {
      "inputs": [],
      "name": "SequentialUpToTooSmall",
      "type": "error"
    },
    {
      "inputs": [],
      "name": "SpotMintTokenIdTooSmall",
      "type": "error"
    },
    {
      "inputs": [],
      "name": "TokenAlreadyExists",
      "type": "error"
    },
    {
      "inputs": [],
      "name": "TransferCallerNotOwnerNorApproved",
      "type": "error"
    },
    {
      "inputs": [],
      "name": "TransferFromIncorrectOwner",
      "type": "error"
    },
    {
      "inputs": [],
      "name": "TransferToNonERC721ReceiverImplementer",
      "type": "error"
    },
    {
      "inputs": [],
      "name": "TransferToZeroAddress",
      "type": "error"
    },
    {
      "inputs": [],
      "name": "URIQueryForNonexistentToken",
      "type": "error"
    },
    {
      "anonymous": false,
      "inputs": [
        {
          "indexed": true,
          "internalType": "address",
          "name": "owner",
          "type": "address"
        },
        {
          "indexed": true,
          "internalType": "address",
          "name": "approved",
          "type": "address"
        },
        {
          "indexed": true,
          "internalType": "uint256",
          "name": "tokenId",
          "type": "uint256"
        }
      ],
      "name": "Approval",
      "type": "event"
    },
    {
      "anonymous": false,
      "inputs": [
        {
          "indexed": true,
          "internalType": "address",
          "name": "owner",
          "type": "address"
        },
        {
          "indexed": true,
          "internalType": "address",
          "name": "operator",
          "type": "address"
        },
        {
          "indexed": false,
          "internalType": "bool",
          "name": "approved",
          "type": "bool"
        }
      ],
      "name": "ApprovalForAll",
      "type": "event"
    },
    {
      "anonymous": false,
      "inputs": [
        {
          "indexed": false,
          "internalType": "string",
          "name": "newBaseURI",
          "type": "string"
        }
      ],
      "name": "BaseURIUpdated",
      "type": "event"
    },
    {
      "anonymous": false,
      "inputs": [
        {
          "indexed": true,
          "internalType": "uint256",
          "name": "fromTokenId",
          "type": "uint256"
        },
        {
          "indexed": false,
          "internalType": "uint256",
          "name": "toTokenId",
          "type": "uint256"
        },
        {
          "indexed": true,
          "internalType": "address",
          "name": "from",
          "type": "address"
        },
        {
          "indexed": true,
          "internalType": "address",
          "name": "to",
          "type": "address"
        }
      ],
      "name": "ConsecutiveTransfer",
      "type": "event"
    },
    {
      "anonymous": false,
      "inputs": [
        {
          "indexed": false,
          "internalType": "uint256",
          "name": "newMaxMintPerAddress",
          "type": "uint256"
        }
      ],
      "name": "MaxMintPerAddressUpdated",
      "type": "event"
    },
    {
      "anonymous": false,
      "inputs": [
        {
          "indexed": false,
          "internalType": "uint256",
          "name": "newMaxSupply",
          "type": "uint256"
        }
      ],
      "name": "MaxSupplyUpdated",
      "type": "event"
    },
    {
      "anonymous": false,
      "inputs": [
        {
          "indexed": true,
          "internalType": "address",
          "name": "to",
          "type": "address"
        },
        {
          "indexed": false,
          "internalType": "uint256",
          "name": "quantity",
          "type": "uint256"
        }
      ],
      "name": "Minted",
      "type": "event"
    },
    {
      "anonymous": false,
      "inputs": [
        {
          "indexed": true,
          "internalType": "address",
          "name": "previousOwner",
          "type": "address"
        },
        {
          "indexed": true,
          "internalType": "address",
          "name": "newOwner",
          "type": "address"
        }
      ],
      "name": "OwnershipTransferred",
      "type": "event"
    },
    {
      "anonymous": false,
      "inputs": [
        {
          "indexed": false,
          "internalType": "bool",
          "name": "isPaused",
          "type": "bool"
        }
      ],
      "name": "PausedStatusUpdated",
      "type": "event"
    },
    {
      "anonymous": false,
      "inputs": [
        {
          "indexed": true,
          "internalType": "address",
          "name": "relayer",
          "type": "address"
        },
        {
          "indexed": false,
          "internalType": "bool",
          "name": "status",
          "type": "bool"
        }
      ],
      "name": "RelayerStatusUpdated",
      "type": "event"
    },
    {
      "anonymous": false,
      "inputs": [
        {
          "indexed": false,
          "internalType": "uint256",
          "name": "newSignatureValidityPeriod",
          "type": "uint256"
        }
      ],
      "name": "SignatureValidityPeriodUpdated",
      "type": "event"
    },
    {
      "anonymous": false,
      "inputs": [
        {
          "indexed": true,
          "internalType": "address",
          "name": "wallet",
          "type": "address"
        },
        {
          "indexed": false,
          "internalType": "uint256",
          "name": "limit",
          "type": "uint256"
        }
      ],
      "name": "TemporaryMintLimitSet",
      "type": "event"
    },
    {
      "anonymous": false,
      "inputs": [
        {
          "indexed": true,
          "internalType": "address",
          "name": "from",
          "type": "address"
        },
        {
          "indexed": true,
          "internalType": "address",
          "name": "to",
          "type": "address"
        },
        {
          "indexed": true,
          "internalType": "uint256",
          "name": "tokenId",
          "type": "uint256"
        }
      ],
      "name": "Transfer",
      "type": "event"
    },
    {
      "inputs": [
        {
          "internalType": "address",
          "name": "to",
          "type": "address"
        },
        {
          "internalType": "uint256",
          "name": "tokenId",
          "type": "uint256"
        }
      ],
      "name": "approve",
      "outputs": [],
      "stateMutability": "payable",
      "type": "function"
    },
    {
      "inputs": [
        {
          "internalType": "address",
          "name": "owner",
          "type": "address"
        }
      ],
      "name": "balanceOf",
      "outputs": [
        {
          "internalType": "uint256",
          "name": "",
          "type": "uint256"
        }
      ],
      "stateMutability": "view",
      "type": "function"
    },
    {
      "inputs": [
        {
          "internalType": "address",
          "name": "signer",
          "type": "address"
        },
        {
          "internalType": "uint256",
          "name": "quantity",
          "type": "uint256"
        },
        {
          "internalType": "uint256",
          "name": "nonce",
          "type": "uint256"
        },
        {
          "internalType": "uint256",
          "name": "expiry",
          "type": "uint256"
        },
        {
          "internalType": "bytes",
          "name": "signature",
          "type": "bytes"
        }
      ],
      "name": "gaslessMint",
      "outputs": [],
      "stateMutability": "nonpayable",
      "type": "function"
    },
    {
      "inputs": [
        {
          "internalType": "uint256",
          "name": "tokenId",
          "type": "uint256"
        }
      ],
      "name": "getApproved",
      "outputs": [
        {
          "internalType": "address",
          "name": "",
          "type": "address"
        }
      ],
      "stateMutability": "view",
      "type": "function"
    },
    {
      "inputs": [
        {
          "internalType": "address",
          "name": "wallet",
          "type": "address"
        }
      ],
      "name": "getCurrentMintLimit",
      "outputs": [
        {
          "internalType": "uint256",
          "name": "",
          "type": "uint256"
        }
      ],
      "stateMutability": "view",
      "type": "function"
    },
    {
      "inputs": [
        {
          "internalType": "address",
          "name": "signer",
          "type": "address"
        }
      ],
      "name": "getNonce",
      "outputs": [
        {
          "internalType": "uint256",
          "name": "",
          "type": "uint256"
        }
      ],
      "stateMutability": "view",
      "type": "function"
    },
    {
      "inputs": [
        {
          "internalType": "address",
          "name": "owner",
          "type": "address"
        },
        {
          "internalType": "address",
          "name": "operator",
          "type": "address"
        }
      ],
      "name": "isApprovedForAll",
      "outputs": [
        {
          "internalType": "bool",
          "name": "",
          "type": "bool"
        }
      ],
      "stateMutability": "view",
      "type": "function"
    },
    {
      "inputs": [
        {
          "internalType": "address",
          "name": "",
          "type": "address"
        }
      ],
      "name": "isRelayer",
      "outputs": [
        {
          "internalType": "bool",
          "name": "",
          "type": "bool"
        }
      ],
      "stateMutability": "view",
      "type": "function"
    },
    {
      "inputs": [],
      "name": "maxMintPerAddress",
      "outputs": [
        {
          "internalType": "uint256",
          "name": "",
          "type": "uint256"
        }
      ],
      "stateMutability": "view",
      "type": "function"
    },
    {
      "inputs": [],
      "name": "maxSupply",
      "outputs": [
        {
          "internalType": "uint256",
          "name": "",
          "type": "uint256"
        }
      ],
      "stateMutability": "view",
      "type": "function"
    },
    {
      "inputs": [
        {
          "internalType": "address",
          "name": "",
          "type": "address"
        }
      ],
      "name": "mintedAmount",
      "outputs": [
        {
          "internalType": "uint256",
          "name": "",
          "type": "uint256"
        }
      ],
      "stateMutability": "view",
      "type": "function"
    },
    {
      "inputs": [],
      "name": "name",
      "outputs": [
        {
          "internalType": "string",
          "name": "",
          "type": "string"
        }
      ],
      "stateMutability": "view",
      "type": "function"
    },
    {
      "inputs": [
        {
          "internalType": "address",
          "name": "",
          "type": "address"
        }
      ],
      "name": "nonces",
      "outputs": [
        {
          "internalType": "uint256",
          "name": "",
          "type": "uint256"
        }
      ],
      "stateMutability": "view",
      "type": "function"
    },
    {
      "inputs": [],
      "name": "owner",
      "outputs": [
        {
          "internalType": "address",
          "name": "",
          "type": "address"
        }
      ],
      "stateMutability": "view",
      "type": "function"
    },
    {
      "inputs": [
        {
          "internalType": "uint256",
          "name": "tokenId",
          "type": "uint256"
        }
      ],
      "name": "ownerOf",
      "outputs": [
        {
          "internalType": "address",
          "name": "",
          "type": "address"
        }
      ],
      "stateMutability": "view",
      "type": "function"
    },
    {
      "inputs": [],
      "name": "paused",
      "outputs": [
        {
          "internalType": "bool",
          "name": "",
          "type": "bool"
        }
      ],
      "stateMutability": "view",
      "type": "function"
    },
    {
      "inputs": [
        {
          "internalType": "address",
          "name": "wallet",
          "type": "address"
        }
      ],
      "name": "remainingMintAmount",
      "outputs": [
        {
          "internalType": "uint256",
          "name": "",
          "type": "uint256"
        }
      ],
      "stateMutability": "view",
      "type": "function"
    },
    {
      "inputs": [],
      "name": "remainingTotalSupply",
      "outputs": [
        {
          "internalType": "uint256",
          "name": "",
          "type": "uint256"
        }
      ],
      "stateMutability": "view",
      "type": "function"
    },
    {
      "inputs": [],
      "name": "renounceOwnership",
      "outputs": [],
      "stateMutability": "nonpayable",
      "type": "function"
    },
    {
      "inputs": [
        {
          "internalType": "address",
          "name": "from",
          "type": "address"
        },
        {
          "internalType": "address",
          "name": "to",
          "type": "address"
        },
        {
          "internalType": "uint256",
          "name": "tokenId",
          "type": "uint256"
        }
      ],
      "name": "safeTransferFrom",
      "outputs": [],
      "stateMutability": "payable",
      "type": "function"
    },
    {
      "inputs": [
        {
          "internalType": "address",
          "name": "from",
          "type": "address"
        },
        {
          "internalType": "address",
          "name": "to",
          "type": "address"
        },
        {
          "internalType": "uint256",
          "name": "tokenId",
          "type": "uint256"
        },
        {
          "internalType": "bytes",
          "name": "_data",
          "type": "bytes"
        }
      ],
      "name": "safeTransferFrom",
      "outputs": [],
      "stateMutability": "payable",
      "type": "function"
    },
    {
      "inputs": [
        {
          "internalType": "address",
          "name": "operator",
          "type": "address"
        },
        {
          "internalType": "bool",
          "name": "approved",
          "type": "bool"
        }
      ],
      "name": "setApprovalForAll",
      "outputs": [],
      "stateMutability": "nonpayable",
      "type": "function"
    },
    {
      "inputs": [
        {
          "internalType": "string",
          "name": "_newBaseURI",
          "type": "string"
        }
      ],
      "name": "setBaseURI",
      "outputs": [],
      "stateMutability": "nonpayable",
      "type": "function"
    },
    {
      "inputs": [
        {
          "internalType": "uint256",
          "name": "_newMaxMintPerAddress",
          "type": "uint256"
        }
      ],
      "name": "setMaxMintPerAddress",
      "outputs": [],
      "stateMutability": "nonpayable",
      "type": "function"
    },
    {
      "inputs": [
        {
          "internalType": "uint256",
          "name": "_newMaxSupply",
          "type": "uint256"
        }
      ],
      "name": "setMaxSupply",
      "outputs": [],
      "stateMutability": "nonpayable",
      "type": "function"
    },
    {
      "inputs": [
        {
          "internalType": "bool",
          "name": "_paused",
          "type": "bool"
        }
      ],
      "name": "setPaused",
      "outputs": [],
      "stateMutability": "nonpayable",
      "type": "function"
    },
    {
      "inputs": [
        {
          "internalType": "address",
          "name": "relayer",
          "type": "address"
        },
        {
          "internalType": "bool",
          "name": "status",
          "type": "bool"
        }
      ],
      "name": "setRelayerStatus",
      "outputs": [],
      "stateMutability": "nonpayable",
      "type": "function"
    },
    {
      "inputs": [
        {
          "internalType": "uint256",
          "name": "_newSignatureValidityPeriod",
          "type": "uint256"
        }
      ],
      "name": "setSignatureValidityPeriod",
      "outputs": [],
      "stateMutability": "nonpayable",
      "type": "function"
    },
    {
      "inputs": [
        {
          "internalType": "address",
          "name": "wallet",
          "type": "address"
        },
        {
          "internalType": "uint256",
          "name": "limit",
          "type": "uint256"
        }
      ],
      "name": "setTemporaryMintLimit",
      "outputs": [],
      "stateMutability": "nonpayable",
      "type": "function"
    },
    {
      "inputs": [],
      "name": "signatureValidityPeriod",
      "outputs": [
        {
          "internalType": "uint256",
          "name": "",
          "type": "uint256"
        }
      ],
      "stateMutability": "view",
      "type": "function"
    },
    {
      "inputs": [
        {
          "internalType": "bytes4",
          "name": "interfaceId",
          "type": "bytes4"
        }
      ],
      "name": "supportsInterface",
      "outputs": [
        {
          "internalType": "bool",
          "name": "",
          "type": "bool"
        }
      ],
      "stateMutability": "view",
      "type": "function"
    },
    {
      "inputs": [],
      "name": "symbol",
      "outputs": [
        {
          "internalType": "string",
          "name": "",
          "type": "string"
        }
      ],
      "stateMutability": "view",
      "type": "function"
    },
    {
      "inputs": [
        {
          "internalType": "address",
          "name": "",
          "type": "address"
        }
      ],
      "name": "temporaryMintLimit",
      "outputs": [
        {
          "internalType": "uint256",
          "name": "",
          "type": "uint256"
        }
      ],
      "stateMutability": "view",
      "type": "function"
    },
    {
      "inputs": [
        {
          "internalType": "uint256",
          "name": "_tokenId",
          "type": "uint256"
        }
      ],
      "name": "tokenURI",
      "outputs": [
        {
          "internalType": "string",
          "name": "",
          "type": "string"
        }
      ],
      "stateMutability": "view",
      "type": "function"
    },
    {
      "inputs": [],
      "name": "totalSupply",
      "outputs": [
        {
          "internalType": "uint256",
          "name": "result",
          "type": "uint256"
        }
      ],
      "stateMutability": "view",
      "type": "function"
    },
    {
      "inputs": [
        {
          "internalType": "address",
          "name": "from",
          "type": "address"
        },
        {
          "internalType": "address",
          "name": "to",
          "type": "address"
        },
        {
          "internalType": "uint256",
          "name": "tokenId",
          "type": "uint256"
        }
      ],
      "name": "transferFrom",
      "outputs": [],
      "stateMutability": "payable",
      "type": "function"
    },
    {
      "inputs": [
        {
          "internalType": "address",
          "name": "newOwner",
          "type": "address"
        }
      ],
      "name": "transferOwnership",
      "outputs": [],
      "stateMutability": "nonpayable",
      "type": "function"
    },
    {
      "inputs": [
        {
          "internalType": "address",
          "name": "relayer",
          "type": "address"
        },
        {
          "internalType": "address",
          "name": "signer",
          "type": "address"
        },
        {
          "internalType": "uint256",
          "name": "quantity",
          "type": "uint256"
        },
        {
          "internalType": "uint256",
          "name": "nonce",
          "type": "uint256"
        },
        {
          "internalType": "uint256",
          "name": "expiry",
          "type": "uint256"
        },
        {
          "internalType": "bytes",
          "name": "signature",
          "type": "bytes"
        }
      ],
      "name": "verifySignature",
      "outputs": [
        {
          "internalType": "bool",
          "name": "",
          "type": "bool"
        }
      ],
      "stateMutability": "view",
      "type": "function"
    }
  ],
  "bytecode": "0x6080604052610e10600f553480156200001757600080fd5b50604051620046b5380380620046b583398181016040528101906200003d9190620005a4565b6200004d6200026860201b60201c565b86868160029081620000609190620008de565b508060039081620000729190620008de565b50620000836200027060201b60201c565b600081905550620000996200027060201b60201c565b620000a96200027960201b60201c565b1015620000c957620000c863fed8210f60e01b620002a160201b60201c565b5b5050600073ffffffffffffffffffffffffffffffffffffffff168173ffffffffffffffffffffffffffffffffffffffff1603620001405760006040517f1e4fbdf7000000000000000000000000000000000000000000000000000000008152600401620001379190620009d6565b60405180910390fd5b6200015181620002ab60201b60201c565b506001600a8190555083600b90816200016b9190620008de565b5082600c8190555081600d819055506001601360008373ffffffffffffffffffffffffffffffffffffffff1673ffffffffffffffffffffffffffffffffffffffff16815260200190815260200160002060006101000a81548160ff0219169083151502179055508073ffffffffffffffffffffffffffffffffffffffff167f3bb38cecda6fe53da9a919185b2ba2908d839e143f815aa249e3b1e061586e8060016040516200021b919062000a10565b60405180910390a27f6741b2fc379fad678116fe3d4d4b9a1a184ab53ba36b86ad0fa66340b1ab41ad8460405162000254919062000a7f565b60405180910390a150505050505062000aa3565b600033905090565b60006001905090565b60007fffffffffffffffffffffffffffffffffffffffffffffffffffffffffffffffff905090565b8060005260046000fd5b6000600960009054906101000a900473ffffffffffffffffffffffffffffffffffffffff16905081600960006101000a81548173ffffffffffffffffffffffffffffffffffffffff021916908373ffffffffffffffffffffffffffffffffffffffff1602179055508173ffffffffffffffffffffffffffffffffffffffff168173ffffffffffffffffffffffffffffffffffffffff167f8be0079c531659141344cd1fd0a4f28419497f9722a3daafe3b4186f6b6457e060405160405180910390a35050565b6000604051905090565b600080fd5b600080fd5b600080fd5b600080fd5b6000601f19601f8301169050919050565b7f4e487b7100000000000000000000000000000000000000000000000000000000600052604160045260246000fd5b620003da826200038f565b810181811067ffffffffffffffff82111715620003fc57620003fb620003a0565b5b80604052505050565b60006200041162000371565b90506200041f8282620003cf565b919050565b600067ffffffffffffffff821115620004425762000441620003a0565b5b6200044d826200038f565b9050602081019050919050565b60005b838110156200047a5780820151818401526020810190506200045d565b60008484015250505050565b60006200049d620004978462000424565b62000405565b905082815260208101848484011115620004bc57620004bb6200038a565b5b620004c98482856200045a565b509392505050565b600082601f830112620004e957620004e862000385565b5b8151620004fb84826020860162000486565b91505092915050565b6000819050919050565b620005198162000504565b81146200052557600080fd5b50565b60008151905062000539816200050e565b92915050565b600073ffffffffffffffffffffffffffffffffffffffff82169050919050565b60006200056c826200053f565b9050919050565b6200057e816200055f565b81146200058a57600080fd5b50565b6000815190506200059e8162000573565b92915050565b60008060008060008060c08789031215620005c457620005c36200037b565b5b600087015167ffffffffffffffff811115620005e557620005e462000380565b5b620005f389828a01620004d1565b965050602087015167ffffffffffffffff81111562000617576200061662000380565b5b6200062589828a01620004d1565b955050604087015167ffffffffffffffff81111562000649576200064862000380565b5b6200065789828a01620004d1565b94505060606200066a89828a0162000528565b93505060806200067d89828a0162000528565b92505060a06200069089828a016200058d565b9150509295509295509295565b600081519050919050565b7f4e487b7100000000000000000000000000000000000000000000000000000000600052602260045260246000fd5b60006002820490506001821680620006f057607f821691505b602082108103620007065762000705620006a8565b5b50919050565b60008190508160005260206000209050919050565b60006020601f8301049050919050565b600082821b905092915050565b600060088302620007707fffffffffffffffffffffffffffffffffffffffffffffffffffffffffffffffff8262000731565b6200077c868362000731565b95508019841693508086168417925050509392505050565b6000819050919050565b6000620007bf620007b9620007b38462000504565b62000794565b62000504565b9050919050565b6000819050919050565b620007db836200079e565b620007f3620007ea82620007c6565b8484546200073e565b825550505050565b600090565b6200080a620007fb565b62000817818484620007d0565b505050565b5b818110156200083f576200083360008262000800565b6001810190506200081d565b5050565b601f8211156200088e5762000858816200070c565b620008638462000721565b8101602085101562000873578190505b6200088b620008828562000721565b8301826200081c565b50505b505050565b600082821c905092915050565b6000620008b36000198460080262000893565b1980831691505092915050565b6000620008ce8383620008a0565b9150826002028217905092915050565b620008e9826200069d565b67ffffffffffffffff811115620009055762000904620003a0565b5b620009118254620006d7565b6200091e82828562000843565b600060209050601f83116001811462000956576000841562000941578287015190505b6200094d8582620008c0565b865550620009bd565b601f19841662000966866200070c565b60005b82811015620009905784890151825560018201915060208501945060208101905062000969565b86831015620009b05784890151620009ac601f891682620008a0565b8355505b6001600288020188555050505b505050505050565b620009d0816200055f565b82525050565b6000602082019050620009ed6000830184620009c5565b92915050565b60008115159050919050565b62000a0a81620009f3565b82525050565b600060208201905062000a276000830184620009ff565b92915050565b600082825260208201905092915050565b600062000a4b826200069d565b62000a57818562000a2d565b935062000a698185602086016200045a565b62000a74816200038f565b840191505092915050565b6000602082019050818103600083015262000a9b818462000a3e565b905092915050565b613c028062000ab36000396000f3fe6080604052600436106102255760003560e01c80635bf67731116101235780638da5cb5b116100ab578063d5abeb011161006f578063d5abeb0114610819578063e7221aa214610844578063e985e9c514610881578063f2fde38b146108be578063fbbf8cc3146108e757610225565b80638da5cb5b1461074157806395d89b411461076c578063a22cb46514610797578063b88d4fde146107c0578063c87b56dd146107dc57610225565b8063709563e2116100f2578063709563e21461065c57806370a0823114610687578063715018a6146106c45780637ecebe00146106db578063860158341461071857610225565b80635bf67731146105a05780635c975abb146105cb5780636352211e146105f65780636f8b44b01461063357610225565b80632d0335ab116101b1578063541d554811610175578063541d5548146104a957806355f804b3146104e657806356dfa8161461050f578063572849c414610538578063587760091461056357610225565b80632d0335ab146103ad5780632f3c1711146103ea57806342842e0e1461042757806344e8ad9a14610443578063534b134a1461048057610225565b806316c38b3c116101f857806316c38b3c146102eb57806318160ddd146103145780631858f6b71461033f5780631e14d44b1461036857806323b872dd1461039157610225565b806301ffc9a71461022a57806306fdde0314610267578063081812fc14610292578063095ea7b3146102cf575b600080fd5b34801561023657600080fd5b50610251600480360381019061024c91906129aa565b610924565b60405161025e91906129f2565b60405180910390f35b34801561027357600080fd5b5061027c6109b6565b6040516102899190612a9d565b60405180910390f35b34801561029e57600080fd5b506102b960048036038101906102b49190612af5565b610a48565b6040516102c69190612b63565b60405180910390f35b6102e960048036038101906102e49190612baa565b610aa6565b005b3480156102f757600080fd5b50610312600480360381019061030d9190612c16565b610ab6565b005b34801561032057600080fd5b50610329610b12565b6040516103369190612c52565b60405180910390f35b34801561034b57600080fd5b5061036660048036038101906103619190612baa565b610b5f565b005b34801561037457600080fd5b5061038f600480360381019061038a9190612af5565b610bfd565b005b6103ab60048036038101906103a69190612c6d565b610c46565b005b3480156103b957600080fd5b506103d460048036038101906103cf9190612cc0565b610f07565b6040516103e19190612c52565b60405180910390f35b3480156103f657600080fd5b50610411600480360381019061040c9190612cc0565b610f50565b60405161041e9190612c52565b60405180910390f35b610441600480360381019061043c9190612c6d565b610fcd565b005b34801561044f57600080fd5b5061046a60048036038101906104659190612e22565b610fed565b60405161047791906129f2565b60405180910390f35b34801561048c57600080fd5b506104a760048036038101906104a29190612af5565b611085565b005b3480156104b557600080fd5b506104d060048036038101906104cb9190612cc0565b6110ce565b6040516104dd91906129f2565b60405180910390f35b3480156104f257600080fd5b5061050d60048036038101906105089190612f6c565b6110ee565b005b34801561051b57600080fd5b5061053660048036038101906105319190612fb5565b611140565b005b34801561054457600080fd5b5061054d611569565b60405161055a9190612c52565b60405180910390f35b34801561056f57600080fd5b5061058a60048036038101906105859190612cc0565b61156f565b6040516105979190612c52565b60405180910390f35b3480156105ac57600080fd5b506105b5611607565b6040516105c29190612c52565b60405180910390f35b3480156105d757600080fd5b506105e0611623565b6040516105ed91906129f2565b60405180910390f35b34801561060257600080fd5b5061061d60048036038101906106189190612af5565b611636565b60405161062a9190612b63565b60405180910390f35b34801561063f57600080fd5b5061065a60048036038101906106559190612af5565b611648565b005b34801561066857600080fd5b50610671611691565b60405161067e9190612c52565b60405180910390f35b34801561069357600080fd5b506106ae60048036038101906106a99190612cc0565b611697565b6040516106bb9190612c52565b60405180910390f35b3480156106d057600080fd5b506106d961172e565b005b3480156106e757600080fd5b5061070260048036038101906106fd9190612cc0565b611742565b60405161070f9190612c52565b60405180910390f35b34801561072457600080fd5b5061073f600480360381019061073a919061304c565b61175a565b005b34801561074d57600080fd5b5061075661180b565b6040516107639190612b63565b60405180910390f35b34801561077857600080fd5b50610781611835565b60405161078e9190612a9d565b60405180910390f35b3480156107a357600080fd5b506107be60048036038101906107b9919061304c565b6118c7565b005b6107da60048036038101906107d5919061308c565b6119d2565b005b3480156107e857600080fd5b5061080360048036038101906107fe9190612af5565b611a24565b6040516108109190612a9d565b60405180910390f35b34801561082557600080fd5b5061082e611a5e565b60405161083b9190612c52565b60405180910390f35b34801561085057600080fd5b5061086b60048036038101906108669190612cc0565b611a64565b6040516108789190612c52565b60405180910390f35b34801561088d57600080fd5b506108a860048036038101906108a3919061310f565b611a7c565b6040516108b591906129f2565b60405180910390f35b3480156108ca57600080fd5b506108e560048036038101906108e09190612cc0565b611b10565b005b3480156108f357600080fd5b5061090e60048036038101906109099190612cc0565b611b96565b60405161091b9190612c52565b60405180910390f35b60006301ffc9a760e01b827bffffffffffffffffffffffffffffffffffffffffffffffffffffffff1916148061097f57506380ac58cd60e01b827bffffffffffffffffffffffffffffffffffffffffffffffffffffffff1916145b806109af5750635b5e139f60e01b827bffffffffffffffffffffffffffffffffffffffffffffffffffffffff1916145b9050919050565b6060600280546109c59061317e565b80601f01602080910402602001604051908101604052809291908181526020018280546109f19061317e565b8015610a3e5780601f10610a1357610100808354040283529160200191610a3e565b820191906000526020600020905b815481529060010190602001808311610a2157829003601f168201915b5050505050905090565b6000610a5382611bae565b610a6857610a6763cf4700e460e01b611c5a565b5b6006600083815260200190815260200160002060000160009054906101000a900473ffffffffffffffffffffffffffffffffffffffff169050919050565b610ab282826001611c64565b5050565b610abe611d93565b80600e60006101000a81548160ff0219169083151502179055507f056aafd06a16976e0b2d699e0a606d40fc9025f526ec1ba92c041911afb088cd81604051610b0791906129f2565b60405180910390a150565b6000610b1c611e1a565b600154600054030390507fffffffffffffffffffffffffffffffffffffffffffffffffffffffffffffffff610b4f611e23565b14610b5c57600854810190505b90565b610b67611d93565b80601260008473ffffffffffffffffffffffffffffffffffffffff1673ffffffffffffffffffffffffffffffffffffffff168152602001908152602001600020819055508173ffffffffffffffffffffffffffffffffffffffff167fac602bfb9e8c495a81db5f416be1ee9de0e425e2d274cbf8e5343bcfa6ab132082604051610bf19190612c52565b60405180910390a25050565b610c05611d93565b80600d819055507fd7f52ba74b1207a57dc246679da9d4532641979dabf8cca1eb4528e9e117b6f081604051610c3b9190612c52565b60405180910390a150565b6000610c5182611e4b565b905073ffffffffffffffffffffffffffffffffffffffff8473ffffffffffffffffffffffffffffffffffffffff161693508373ffffffffffffffffffffffffffffffffffffffff168173ffffffffffffffffffffffffffffffffffffffff1614610cc657610cc563a114810060e01b611c5a565b5b600080610cd284611f64565b91509150610ce88187610ce3611f8b565b611f93565b610d1357610cfd86610cf8611f8b565b611a7c565b610d1257610d116359c896be60e01b611c5a565b5b5b610d208686866001611fd7565b8015610d2b57600082555b600560008773ffffffffffffffffffffffffffffffffffffffff1673ffffffffffffffffffffffffffffffffffffffff168152602001908152602001600020600081546001900391905081905550600560008673ffffffffffffffffffffffffffffffffffffffff1673ffffffffffffffffffffffffffffffffffffffff1681526020019081526020016000206000815460010191905081905550610df985610dd5888887611fdd565b7c020000000000000000000000000000000000000000000000000000000017612005565b600460008681526020019081526020016000208190555060007c0200000000000000000000000000000000000000000000000000000000841603610e7f5760006001850190506000600460008381526020019081526020016000205403610e7d576000548114610e7c578360046000838152602001908152602001600020819055505b5b505b600073ffffffffffffffffffffffffffffffffffffffff8673ffffffffffffffffffffffffffffffffffffffff161690508481887fddf252ad1be2c89b69c2b068fc378daa952ba7f163c4a11628f55a4df523b3ef600080a460008103610ef157610ef063ea553b3460e01b611c5a565b5b610efe8787876001612030565b50505050505050565b6000601160008373ffffffffffffffffffffffffffffffffffffffff1673ffffffffffffffffffffffffffffffffffffffff168152602001908152602001600020549050919050565b600080601060008473ffffffffffffffffffffffffffffffffffffffff1673ffffffffffffffffffffffffffffffffffffffff16815260200190815260200160002054610f9c8461156f565b610fa691906131de565b9050610fb0611607565b8110610fc357610fbe611607565b610fc5565b805b915050919050565b610fe8838383604051806020016040528060008152506119d2565b505050565b60008087878787873060405160200161100b9695949392919061327b565b604051602081830303815290604052805190602001209050600061102e82612036565b90506000611045858361206c90919063ffffffff16565b90508873ffffffffffffffffffffffffffffffffffffffff168173ffffffffffffffffffffffffffffffffffffffff161493505050509695505050505050565b61108d611d93565b80600f819055507f7dea04d056a5cfb4b08e66500d8c3edb395dbbce3f4edea7e59880db875a856c816040516110c39190612c52565b60405180910390a150565b60136020528060005260406000206000915054906101000a900460ff1681565b6110f6611d93565b80600b90816111059190613497565b507f6741b2fc379fad678116fe3d4d4b9a1a184ab53ba36b86ad0fa66340b1ab41ad816040516111359190612a9d565b60405180910390a150565b611148612098565b601360003373ffffffffffffffffffffffffffffffffffffffff1673ffffffffffffffffffffffffffffffffffffffff16815260200190815260200160002060009054906101000a900460ff166111d4576040517f08c379a00000000000000000000000000000000000000000000000000000000081526004016111cb906135b5565b60405180910390fd5b600e60009054906101000a900460ff1615611224576040517f08c379a000000000000000000000000000000000000000000000000000000000815260040161121b90613621565b60405180910390fd5b601160008673ffffffffffffffffffffffffffffffffffffffff1673ffffffffffffffffffffffffffffffffffffffff1681526020019081526020016000205483146112a5576040517f08c379a000000000000000000000000000000000000000000000000000000000815260040161129c9061368d565b60405180910390fd5b814211156112e8576040517f08c379a00000000000000000000000000000000000000000000000000000000081526004016112df906136f9565b60405180910390fd5b6000841161132b576040517f08c379a000000000000000000000000000000000000000000000000000000000815260040161132290613765565b60405180910390fd5b611333611607565b841115611375576040517f08c379a000000000000000000000000000000000000000000000000000000000815260040161136c906137d1565b60405180910390fd5b61137e8561156f565b84601060008873ffffffffffffffffffffffffffffffffffffffff1673ffffffffffffffffffffffffffffffffffffffff168152602001908152602001600020546113c991906137f1565b111561140a576040517f08c379a000000000000000000000000000000000000000000000000000000000815260040161140190613871565b60405180910390fd5b611418338686868686610fed565b611457576040517f08c379a000000000000000000000000000000000000000000000000000000000815260040161144e906138dd565b60405180910390fd5b601160008673ffffffffffffffffffffffffffffffffffffffff1673ffffffffffffffffffffffffffffffffffffffff16815260200190815260200160002060008154809291906114a7906138fd565b919050555083601060008773ffffffffffffffffffffffffffffffffffffffff1673ffffffffffffffffffffffffffffffffffffffff16815260200190815260200160002060008282546114fb91906137f1565b9250508190555061150c85856120de565b8473ffffffffffffffffffffffffffffffffffffffff167f30385c845b448a36257a6a1716e6ad2e1bc2cbe333cde1e69fe849ad6511adfe856040516115529190612c52565b60405180910390a26115626120fc565b5050505050565b600d5481565b600080601260008473ffffffffffffffffffffffffffffffffffffffff1673ffffffffffffffffffffffffffffffffffffffff16815260200190815260200160002054036115bf57600d54611600565b601260008373ffffffffffffffffffffffffffffffffffffffff1673ffffffffffffffffffffffffffffffffffffffff168152602001908152602001600020545b9050919050565b6000611611612106565b600c5461161e91906131de565b905090565b600e60009054906101000a900460ff1681565b600061164182611e4b565b9050919050565b611650611d93565b80600c819055507f7810bd47de260c3e9ee10061cf438099dd12256c79485f12f94dbccc981e806c816040516116869190612c52565b60405180910390a150565b600f5481565b60008073ffffffffffffffffffffffffffffffffffffffff168273ffffffffffffffffffffffffffffffffffffffff16036116dd576116dc638f4eb60460e01b611c5a565b5b67ffffffffffffffff600560008473ffffffffffffffffffffffffffffffffffffffff1673ffffffffffffffffffffffffffffffffffffffff16815260200190815260200160002054169050919050565b611736611d93565b611740600061214f565b565b60116020528060005260406000206000915090505481565b611762611d93565b80601360008473ffffffffffffffffffffffffffffffffffffffff1673ffffffffffffffffffffffffffffffffffffffff16815260200190815260200160002060006101000a81548160ff0219169083151502179055508173ffffffffffffffffffffffffffffffffffffffff167f3bb38cecda6fe53da9a919185b2ba2908d839e143f815aa249e3b1e061586e80826040516117ff91906129f2565b60405180910390a25050565b6000600960009054906101000a900473ffffffffffffffffffffffffffffffffffffffff16905090565b6060600380546118449061317e565b80601f01602080910402602001604051908101604052809291908181526020018280546118709061317e565b80156118bd5780601f10611892576101008083540402835291602001916118bd565b820191906000526020600020905b8154815290600101906020018083116118a057829003601f168201915b5050505050905090565b80600760006118d4611f8b565b73ffffffffffffffffffffffffffffffffffffffff1673ffffffffffffffffffffffffffffffffffffffff16815260200190815260200160002060008473ffffffffffffffffffffffffffffffffffffffff1673ffffffffffffffffffffffffffffffffffffffff16815260200190815260200160002060006101000a81548160ff0219169083151502179055508173ffffffffffffffffffffffffffffffffffffffff16611981611f8b565b73ffffffffffffffffffffffffffffffffffffffff167f17307eab39ab6107e8899845ad3d59bd9653f200f220920489ca2b5937696c31836040516119c691906129f2565b60405180910390a35050565b6119dd848484610c46565b60008373ffffffffffffffffffffffffffffffffffffffff163b14611a1e57611a0884848484612215565b611a1d57611a1c63d1a57ed660e01b611c5a565b5b5b50505050565b6060611a2e612344565b611a37836123d6565b604051602001611a489291906139cd565b6040516020818303038152906040529050919050565b600c5481565b60126020528060005260406000206000915090505481565b6000600760008473ffffffffffffffffffffffffffffffffffffffff1673ffffffffffffffffffffffffffffffffffffffff16815260200190815260200160002060008373ffffffffffffffffffffffffffffffffffffffff1673ffffffffffffffffffffffffffffffffffffffff16815260200190815260200160002060009054906101000a900460ff16905092915050565b611b18611d93565b600073ffffffffffffffffffffffffffffffffffffffff168173ffffffffffffffffffffffffffffffffffffffff1603611b8a5760006040517f1e4fbdf7000000000000000000000000000000000000000000000000000000008152600401611b819190612b63565b60405180910390fd5b611b938161214f565b50565b60106020528060005260406000206000915090505481565b600081611bb9611e1a565b11611c5457611bc6611e23565b821115611bf057611be96004600084815260200190815260200160002054612426565b9050611c55565b600054821015611c535760005b6000600460008581526020019081526020016000205491508103611c2c5782611c25906139fc565b9250611bfd565b60007c01000000000000000000000000000000000000000000000000000000008216149150505b5b5b919050565b8060005260046000fd5b6000611c6f83611636565b9050818015611cb157508073ffffffffffffffffffffffffffffffffffffffff16611c98611f8b565b73ffffffffffffffffffffffffffffffffffffffff1614155b15611cdd57611cc781611cc2611f8b565b611a7c565b611cdc57611cdb63cfb3b94260e01b611c5a565b5b5b836006600085815260200190815260200160002060000160006101000a81548173ffffffffffffffffffffffffffffffffffffffff021916908373ffffffffffffffffffffffffffffffffffffffff160217905550828473ffffffffffffffffffffffffffffffffffffffff168273ffffffffffffffffffffffffffffffffffffffff167f8c5be1e5ebec7d5bd14f71427d1e84f3dd0314c0f7b2291e5b200ac8c7c3b92560405160405180910390a450505050565b611d9b612467565b73ffffffffffffffffffffffffffffffffffffffff16611db961180b565b73ffffffffffffffffffffffffffffffffffffffff1614611e1857611ddc612467565b6040517f118cdaa7000000000000000000000000000000000000000000000000000000008152600401611e0f9190612b63565b60405180910390fd5b565b60006001905090565b60007fffffffffffffffffffffffffffffffffffffffffffffffffffffffffffffffff905090565b600081611e56611e1a565b11611f4e5760046000838152602001908152602001600020549050611e79611e23565b821115611e9e57611e8981612426565b611f5f57611e9d63df2d9b4260e01b611c5a565b5b60008103611f25576000548210611ec057611ebf63df2d9b4260e01b611c5a565b5b5b60046000836001900393508381526020019081526020016000205490506000810315611f205760007c010000000000000000000000000000000000000000000000000000000082160315611f5f57611f1f63df2d9b4260e01b611c5a565b5b611ec1565b60007c010000000000000000000000000000000000000000000000000000000082160315611f5f575b611f5e63df2d9b4260e01b611c5a565b5b919050565b60008060006006600085815260200190815260200160002090508092508254915050915091565b600033905090565b600073ffffffffffffffffffffffffffffffffffffffff8316925073ffffffffffffffffffffffffffffffffffffffff821691508382148383141790509392505050565b50505050565b60008060e883901c905060e8611ff486868461246f565b62ffffff16901b9150509392505050565b600073ffffffffffffffffffffffffffffffffffffffff83169250814260a01b178317905092915050565b50505050565b60007f19457468657265756d205369676e6564204d6573736167653a0a33320000000060005281601c52603c6000209050919050565b60008060008061207c8686612478565b92509250925061208c82826124d4565b82935050505092915050565b6002600a54036120d4576040517f3ee5aeb500000000000000000000000000000000000000000000000000000000815260040160405180910390fd5b6002600a81905550565b6120f8828260405180602001604052806000815250612638565b5050565b6001600a81905550565b6000612110611e1a565b6000540390507fffffffffffffffffffffffffffffffffffffffffffffffffffffffffffffffff61213f611e23565b1461214c57600854810190505b90565b6000600960009054906101000a900473ffffffffffffffffffffffffffffffffffffffff16905081600960006101000a81548173ffffffffffffffffffffffffffffffffffffffff021916908373ffffffffffffffffffffffffffffffffffffffff1602179055508173ffffffffffffffffffffffffffffffffffffffff168173ffffffffffffffffffffffffffffffffffffffff167f8be0079c531659141344cd1fd0a4f28419497f9722a3daafe3b4186f6b6457e060405160405180910390a35050565b60008373ffffffffffffffffffffffffffffffffffffffff1663150b7a0261223b611f8b565b8786866040518563ffffffff1660e01b815260040161225d9493929190613a7a565b6020604051808303816000875af192505050801561229957506040513d601f19601f820116820180604052508101906122969190613adb565b60015b6122f1573d80600081146122c9576040519150601f19603f3d011682016040523d82523d6000602084013e6122ce565b606091505b5060008151036122e9576122e863d1a57ed660e01b611c5a565b5b805181602001fd5b63150b7a0260e01b7bffffffffffffffffffffffffffffffffffffffffffffffffffffffff1916817bffffffffffffffffffffffffffffffffffffffffffffffffffffffff191614915050949350505050565b6060600b80546123539061317e565b80601f016020809104026020016040519081016040528092919081815260200182805461237f9061317e565b80156123cc5780601f106123a1576101008083540402835291602001916123cc565b820191906000526020600020905b8154815290600101906020018083116123af57829003601f168201915b5050505050905090565b606060a060405101806040526020810391506000825281835b60011561241157600184039350600a81066030018453600a81049050806123ef575b50828103602084039350808452505050919050565b60007c0100000000000000000000000000000000000000000000000000000000821673ffffffffffffffffffffffffffffffffffffffff8316119050919050565b600033905090565b60009392505050565b600080600060418451036124bd5760008060006020870151925060408701519150606087015160001a90506124af888285856126b4565b9550955095505050506124cd565b60006002855160001b9250925092505b9250925092565b600060038111156124e8576124e7613b08565b5b8260038111156124fb576124fa613b08565b5b0315612634576001600381111561251557612514613b08565b5b82600381111561252857612527613b08565b5b0361255f576040517ff645eedf00000000000000000000000000000000000000000000000000000000815260040160405180910390fd5b6002600381111561257357612572613b08565b5b82600381111561258657612585613b08565b5b036125cb578060001c6040517ffce698f70000000000000000000000000000000000000000000000000000000081526004016125c29190612c52565b60405180910390fd5b6003808111156125de576125dd613b08565b5b8260038111156125f1576125f0613b08565b5b0361263357806040517fd78bce0c00000000000000000000000000000000000000000000000000000000815260040161262a9190613b50565b60405180910390fd5b5b5050565b61264283836127a8565b60008373ffffffffffffffffffffffffffffffffffffffff163b146126af57600080549050600083820390505b6126826000868380600101945086612215565b6126975761269663d1a57ed660e01b611c5a565b5b81811061266f5781600054146126ac57600080fd5b50505b505050565b60008060007f7fffffffffffffffffffffffffffffff5d576e7357a4501ddfe92f46681b20a08460001c11156126f457600060038592509250925061279e565b6000600188888888604051600081526020016040526040516127199493929190613b87565b6020604051602081039080840390855afa15801561273b573d6000803e3d6000fd5b505050602060405103519050600073ffffffffffffffffffffffffffffffffffffffff168173ffffffffffffffffffffffffffffffffffffffff160361278f57600060016000801b9350935093505061279e565b8060008060001b935093509350505b9450945094915050565b600080549050600082036127c7576127c663b562e8dd60e01b611c5a565b5b6127d46000848385611fd7565b6127f4836127e56000866000611fdd565b6127ee8561292e565b17612005565b6004600083815260200190815260200160002081905550600160406001901b178202600560008573ffffffffffffffffffffffffffffffffffffffff1673ffffffffffffffffffffffffffffffffffffffff16815260200190815260200160002060008282540192505081905550600073ffffffffffffffffffffffffffffffffffffffff8473ffffffffffffffffffffffffffffffffffffffff16169050600081036128ac576128ab632e07630060e01b611c5a565b5b6000838301905060008390506128c0611e23565b6001830311156128db576128da6381647e3a60e01b611c5a565b5b5b808360007fddf252ad1be2c89b69c2b068fc378daa952ba7f163c4a11628f55a4df523b3ef600080a48181600101915081036128dc57816000819055505050506129296000848385612030565b505050565b60006001821460e11b9050919050565b6000604051905090565b600080fd5b600080fd5b60007fffffffff0000000000000000000000000000000000000000000000000000000082169050919050565b61298781612952565b811461299257600080fd5b50565b6000813590506129a48161297e565b92915050565b6000602082840312156129c0576129bf612948565b5b60006129ce84828501612995565b91505092915050565b60008115159050919050565b6129ec816129d7565b82525050565b6000602082019050612a0760008301846129e3565b92915050565b600081519050919050565b600082825260208201905092915050565b60005b83811015612a47578082015181840152602081019050612a2c565b60008484015250505050565b6000601f19601f8301169050919050565b6000612a6f82612a0d565b612a798185612a18565b9350612a89818560208601612a29565b612a9281612a53565b840191505092915050565b60006020820190508181036000830152612ab78184612a64565b905092915050565b6000819050919050565b612ad281612abf565b8114612add57600080fd5b50565b600081359050612aef81612ac9565b92915050565b600060208284031215612b0b57612b0a612948565b5b6000612b1984828501612ae0565b91505092915050565b600073ffffffffffffffffffffffffffffffffffffffff82169050919050565b6000612b4d82612b22565b9050919050565b612b5d81612b42565b82525050565b6000602082019050612b786000830184612b54565b92915050565b612b8781612b42565b8114612b9257600080fd5b50565b600081359050612ba481612b7e565b92915050565b60008060408385031215612bc157612bc0612948565b5b6000612bcf85828601612b95565b9250506020612be085828601612ae0565b9150509250929050565b612bf3816129d7565b8114612bfe57600080fd5b50565b600081359050612c1081612bea565b92915050565b600060208284031215612c2c57612c2b612948565b5b6000612c3a84828501612c01565b91505092915050565b612c4c81612abf565b82525050565b6000602082019050612c676000830184612c43565b92915050565b600080600060608486031215612c8657612c85612948565b5b6000612c9486828701612b95565b9350506020612ca586828701612b95565b9250506040612cb686828701612ae0565b9150509250925092565b600060208284031215612cd657612cd5612948565b5b6000612ce484828501612b95565b91505092915050565b600080fd5b600080fd5b7f4e487b7100000000000000000000000000000000000000000000000000000000600052604160045260246000fd5b612d2f82612a53565b810181811067ffffffffffffffff82111715612d4e57612d4d612cf7565b5b80604052505050565b6000612d6161293e565b9050612d6d8282612d26565b919050565b600067ffffffffffffffff821115612d8d57612d8c612cf7565b5b612d9682612a53565b9050602081019050919050565b82818337600083830152505050565b6000612dc5612dc084612d72565b612d57565b905082815260208101848484011115612de157612de0612cf2565b5b612dec848285612da3565b509392505050565b600082601f830112612e0957612e08612ced565b5b8135612e19848260208601612db2565b91505092915050565b60008060008060008060c08789031215612e3f57612e3e612948565b5b6000612e4d89828a01612b95565b9650506020612e5e89828a01612b95565b9550506040612e6f89828a01612ae0565b9450506060612e8089828a01612ae0565b9350506080612e9189828a01612ae0565b92505060a087013567ffffffffffffffff811115612eb257612eb161294d565b5b612ebe89828a01612df4565b9150509295509295509295565b600067ffffffffffffffff821115612ee657612ee5612cf7565b5b612eef82612a53565b9050602081019050919050565b6000612f0f612f0a84612ecb565b612d57565b905082815260208101848484011115612f2b57612f2a612cf2565b5b612f36848285612da3565b509392505050565b600082601f830112612f5357612f52612ced565b5b8135612f63848260208601612efc565b91505092915050565b600060208284031215612f8257612f81612948565b5b600082013567ffffffffffffffff811115612fa057612f9f61294d565b5b612fac84828501612f3e565b91505092915050565b600080600080600060a08688031215612fd157612fd0612948565b5b6000612fdf88828901612b95565b9550506020612ff088828901612ae0565b945050604061300188828901612ae0565b935050606061301288828901612ae0565b925050608086013567ffffffffffffffff8111156130335761303261294d565b5b61303f88828901612df4565b9150509295509295909350565b6000806040838503121561306357613062612948565b5b600061307185828601612b95565b925050602061308285828601612c01565b9150509250929050565b600080600080608085870312156130a6576130a5612948565b5b60006130b487828801612b95565b94505060206130c587828801612b95565b93505060406130d687828801612ae0565b925050606085013567ffffffffffffffff8111156130f7576130f661294d565b5b61310387828801612df4565b91505092959194509250565b6000806040838503121561312657613125612948565b5b600061313485828601612b95565b925050602061314585828601612b95565b9150509250929050565b7f4e487b7100000000000000000000000000000000000000000000000000000000600052602260045260246000fd5b6000600282049050600182168061319657607f821691505b6020821081036131a9576131a861314f565b5b50919050565b7f4e487b7100000000000000000000000000000000000000000000000000000000600052601160045260246000fd5b60006131e982612abf565b91506131f483612abf565b925082820390508181111561320c5761320b6131af565b5b92915050565b60008160601b9050919050565b600061322a82613212565b9050919050565b600061323c8261321f565b9050919050565b61325461324f82612b42565b613231565b82525050565b6000819050919050565b61327561327082612abf565b61325a565b82525050565b60006132878289613243565b6014820191506132978288613243565b6014820191506132a78287613264565b6020820191506132b78286613264565b6020820191506132c78285613264565b6020820191506132d78284613243565b601482019150819050979650505050505050565b60008190508160005260206000209050919050565b60006020601f8301049050919050565b600082821b905092915050565b60006008830261334d7fffffffffffffffffffffffffffffffffffffffffffffffffffffffffffffffff82613310565b6133578683613310565b95508019841693508086168417925050509392505050565b6000819050919050565b600061339461338f61338a84612abf565b61336f565b612abf565b9050919050565b6000819050919050565b6133ae83613379565b6133c26133ba8261339b565b84845461331d565b825550505050565b600090565b6133d76133ca565b6133e28184846133a5565b505050565b5b81811015613406576133fb6000826133cf565b6001810190506133e8565b5050565b601f82111561344b5761341c816132eb565b61342584613300565b81016020851015613434578190505b61344861344085613300565b8301826133e7565b50505b505050565b600082821c905092915050565b600061346e60001984600802613450565b1980831691505092915050565b6000613487838361345d565b9150826002028217905092915050565b6134a082612a0d565b67ffffffffffffffff8111156134b9576134b8612cf7565b5b6134c3825461317e565b6134ce82828561340a565b600060209050601f83116001811461350157600084156134ef578287015190505b6134f9858261347b565b865550613561565b601f19841661350f866132eb565b60005b8281101561353757848901518255600182019150602085019450602081019050613512565b868310156135545784890151613550601f89168261345d565b8355505b6001600288020188555050505b505050505050565b7f4e6f7420617574686f72697a65642072656c6179657200000000000000000000600082015250565b600061359f601683612a18565b91506135aa82613569565b602082019050919050565b600060208201905081810360008301526135ce81613592565b9050919050565b7f4d696e74696e6720697320706175736564000000000000000000000000000000600082015250565b600061360b601183612a18565b9150613616826135d5565b602082019050919050565b6000602082019050818103600083015261363a816135fe565b9050919050565b7f496e76616c6964206e6f6e636500000000000000000000000000000000000000600082015250565b6000613677600d83612a18565b915061368282613641565b602082019050919050565b600060208201905081810360008301526136a68161366a565b9050919050565b7f5369676e61747572652065787069726564000000000000000000000000000000600082015250565b60006136e3601183612a18565b91506136ee826136ad565b602082019050919050565b60006020820190508181036000830152613712816136d6565b9050919050565b7f5175616e74697479206d7573742062652067726561746572207468616e203000600082015250565b600061374f601f83612a18565b915061375a82613719565b602082019050919050565b6000602082019050818103600083015261377e81613742565b9050919050565b7f457863656564732072656d61696e696e6720737570706c790000000000000000600082015250565b60006137bb601883612a18565b91506137c682613785565b602082019050919050565b600060208201905081810360008301526137ea816137ae565b9050919050565b60006137fc82612abf565b915061380783612abf565b925082820190508082111561381f5761381e6131af565b5b92915050565b7f45786365656473206d6178206d696e7420706572206164647265737300000000600082015250565b600061385b601c83612a18565b915061386682613825565b602082019050919050565b6000602082019050818103600083015261388a8161384e565b9050919050565b7f496e76616c6964207369676e6174757265000000000000000000000000000000600082015250565b60006138c7601183612a18565b91506138d282613891565b602082019050919050565b600060208201905081810360008301526138f6816138ba565b9050919050565b600061390882612abf565b91507fffffffffffffffffffffffffffffffffffffffffffffffffffffffffffffffff820361393a576139396131af565b5b600182019050919050565b600081905092915050565b600061395b82612a0d565b6139658185613945565b9350613975818560208601612a29565b80840191505092915050565b7f2e6a736f6e000000000000000000000000000000000000000000000000000000600082015250565b60006139b7600583613945565b91506139c282613981565b600582019050919050565b60006139d98285613950565b91506139e58284613950565b91506139f0826139aa565b91508190509392505050565b6000613a0782612abf565b915060008203613a1a57613a196131af565b5b600182039050919050565b600081519050919050565b600082825260208201905092915050565b6000613a4c82613a25565b613a568185613a30565b9350613a66818560208601612a29565b613a6f81612a53565b840191505092915050565b6000608082019050613a8f6000830187612b54565b613a9c6020830186612b54565b613aa96040830185612c43565b8181036060830152613abb8184613a41565b905095945050505050565b600081519050613ad58161297e565b92915050565b600060208284031215613af157613af0612948565b5b6000613aff84828501613ac6565b91505092915050565b7f4e487b7100000000000000000000000000000000000000000000000000000000600052602160045260246000fd5b6000819050919050565b613b4a81613b37565b82525050565b6000602082019050613b656000830184613b41565b92915050565b600060ff82169050919050565b613b8181613b6b565b82525050565b6000608082019050613b9c6000830187613b41565b613ba96020830186613b78565b613bb66040830185613b41565b613bc36060830184613b41565b9594505050505056fea2646970667358221220e90a9efe8b9dc906211f022215db9d681973401321f6acb59df5a19b270040c664736f6c63430008180033",
  "linkReferences": {},
  "deployedLinkReferences": {}
}